:0600000017C1FECFFDCF89
:10000600FCCFFBCFFACFF9CFF8CF88C1F6CFF5CF2B
:100016003BC1F3CFF2CFF1CFF0CFEFCFEECFEDCFA5
:100026001027E80364000A00010000100001100018
:100036000100000000004D07C201C6003C003E0062
:100046007C0029002A002B002C002D002E003500F4
:100056005E0053004100420058005E00410042002D
:1000660043005A00580046004700480049004A002D
:100076004B004C00520053000100D0073F0C5200C9
:10008600000000000000000000003D3D3D3D3D3DFC
:100096003D3D3D3D3D3D3D3D3D3D3D3D3D3D3D3D8A
:1000A6003D3D3D3D3D3D3D3D3D3D3D3D3D3D3D3D7A
:1000B6003D3D3D3D3D3D3D3D3D3D3D3D3D3D3D3D6A
:1000C6003D3D3D3D3D3D3D3D3D3D3D3D3D3D3D3D5A
:1000D6003D3D3D3D3D3D3D200D003D3D3D3D3D3DD4
:1000E6003D3D3D3D3D3D3D3D3D3D3D3D3D3D3D3D3A
:1000F6003D3D3D3D46524F4E5420544353333230DE
:1001060030204D4F4E49544F523D3D3D3D3D3D3DC6
:100116003D3D3D3D3D3D3D3D3D3D3D3D3D3D3D3D09
:100126003D3D3D3D3D3D3D200D003D3D3D3D3D3D83
:100136003D3D3D3D3D3D3D3D3D3D3D3D3D3D3D3DE9
:100146003D3D3D3D3D4D4944444C4520544353338C
:10015600323030204D4F4E49544F523D3D3D3D3D8E
:100166003D3D3D3D3D3D3D3D3D3D3D3D3D3D3D3DB9
:100176003D3D3D3D3D3D3D200D0052656420203A0C
:10018600202564200900477265656E3A20256420A3
:100196000900426C75653A20256420090057686994
:1001A60074653A202564200D0054435333323030B1
:1001B6005F5448524553484F4C44203D2025642007
:1001C600090920544353333230305F544F54414C65
:1001D6005F53554D202564200D0001002D4E414EE4
:1001E60000494E46000001000200380002000400EB
:1001F6003A00020062013C00020064013E00010078
:100206006601400001006801420001006A014400E5
:1002160001006C01580001006E0160000100A6019A
:1002260084000100C301E0010000F894EE27ECBB56
:10023600F1E0FBBFEBBFE5BFF8E1F1BDE1BD8DE04D
:10024600A2E0BB27ED938A95E9F780E094E0A0E66B
:10025600ED930197E9F7ECEEF1E085919591009722
:1002660061F0A591B59105901590BF01F00105903B
:100276000D920197E1F7FB01F0CFEFE5EDBFE4E06A
:10028600EEBFC0E6D1E067C0AA93EA93FA93EFB750
:10029600EA93A5D61BB10CB1E12FEC71D1F4E09134
:1002A600C001EF5FE093C001EFD40083A091C001CD
:1002B600A83019F4E0E0E093C001A091C201AF5F5D
:1002C600A093C201A83029F4E0E0E093C20168944B
:1002D60020F809911991E991EFBFF991E991A99156
:1002E60018951A93E091C201E030E1F3E091C10163
:1002F600EF5FE093C101C8D41081A091C101A8307D
:1003060019F4E0E0E093C101F894E091C201E150F4
:10031600E093C2017894E12F19910895AA93BA93B4
:10032600EA93FA93EFB7EA93A4E8B1E0B2D4E9917D
:10033600EFBFF991E991B991A9911895AA93E8812E
:10034600E066E7B985E38A95F1F7369A349BFECFE6
:10035600349AE5B144C006D0A3E0B0E042D08AD0DA
:10036600FECFFFCFE0E0E8BBE7E0E7BBE0E0E5BBC0
:10037600E8E3E4BBE0E0E2BBE8E1E1BBE0E0E3BFE9
:10038600E2BFEFBD8CD4E0E0EDBDECBDE7BDE6BD60
:10039600EBBDEABDE9BDE8BDE2BDE5BDE4BDE3BD3B
:1003A600E5BFE4E0E9BFE0E0EBB9E8E9EAB9E6E891
:1003B600E0BDE0E0E0BDE7E6E9B9E0E8E8B9E0E0A5
:1003C600E0BFE0E6E7B9E5E8E6B9E0E0EDB9E6BFAB
:1003D60078940895AA935D9BFECFE881ECB92196A7
:1003E6000895BA93AA93E881F981309711F4C098D9
:1003F600C198A881B981119711F4C098C19AA881B2
:10040600B981129711F4C09AC198A881B98113973E
:1004160011F4C09AC19A2296089544D40895C298B8
:1004260045D44ED4E0938601F093870152D4E091EF
:100436008601F09187010895C29A56D441D4E0937B
:100446008801F093890145D459D40895C2984CD4B3
:1004560037D4E0938A01F0938B013BD454D40895AA
:10046600C29A24D42DD4E0938C01F0938D0131D41B
:100476004FD4089536DFA8E9B1E04FD4A091980192
:10048600B0919901E0916E01F0916F01EA17FB07B7
:1004960069F047D4E0939601F0939701E0919801B3
:1004A600F0919901E0939401F09395013AD4E134E7
:1004B600A0E0FA0709F048C05CD338D440D445D44C
:1004C6003CF043D42CF049D44DD44FD453D4F9CF77
:1004D60054D4A0917A0154D455D43CF053D42CF082
:1004E60059D440D45CD446D4F9CF47D4A0917C01EA
:1004F60047D45AD43CF058D42CF05ED433D461D4CB
:1005060039D4F9CF3AD4A0917E013AD45FD43CF0E5
:100516005DD42CF063D426D466D42CD4F9CF2DD454
:10052600A09180012DD464D454F062D444F0E091BB
:100536009201F091930116D463D41CD4F6CF1DD446
:10054600A091920147DFCBC1E234A0E0FA0779F42B
:100556005BD2ECD3A091AA013DDFA091AC013ADFBA
:10056600A091AE0152D4A091660134DFB8C1E33444
:10057600A0E0FA0721F448D24CD447D4B0C1E23502
:10058600A0E0FA0729F445D425DFA0E023DFA7C1C0
:10059600E335A0E0FA0751F437D2A09168011ADFDB
:1005A600A0916A0117DFA0E030D499C1EA35A0E036
:1005B600FA07A9F432DFA2D3A0E0B0E0F3D4A3D3C4
:1005C600A2E0B0E0EFD4A4D3A4E0B0E0EBD4E09195
:1005D6008E01F0918F01A6E0B0E0E4D480C1E83549
:1005E600A0E0FA0711F41ED37AC1E634A0E0FA07B8
:1005F60031F4BFD2609092017090930170C1E734DC
:10060600A0E0FA0731F4B5D2809092019090930160
:1006160066C1E834A0E0FA0731F4ABD2A0909201AB
:10062600B09093015CC1E934A0E0FA0709F046C135
:10063600F301EA19FB09F6D3A937E5E0BE0724F072
:10064600F501E259FA4FCBC0F6D3A734E5E0BE0771
:1006560024F0F501E45CFA4FC2C0EDD3A531E5E024
:10066600BE0724F0F501E65FFA4FB9C0E4D3A33E16
:10067600E4E0BE0724F0F501E852FB4FB0C0DBD33F
:10068600A13BE4E0BE0724F0F501EA55FB4FA7C005
:10069600D2D3AF37E4E0BE0724F0F501EC58FB4FA8
:1006A6009EC0C9D3AD34E4E0BE0724F0F501EA5597
:1006B600FB4F95C0C0D3AB31E4E0BE0724F0F50193
:1006C600E05FFB4F8CC0B7D3A93EE3E0BE0724F042
:1006D600F501E252FC4F83C0AED3A73BE3E0BE0771
:1006E60024F0F501E455FC4F7AC0A5D3A538E3E024
:1006F600BE0724F0F501E658FC4F71C09CD3A33524
:10070600E3E0BE0724F0F501E85BFC4F68C093D335
:10071600A132E3E0BE0724F0F501EA5EFC4F5FC0BC
:100726008AD3AD3BE2E0BE0724F0F501EE54FD4F5F
:1007360056C081D3A935E2E0BE0724F0F501E25B9D
:10074600FD4F4DC078D3A53FE1E0BE0724F0F5018B
:10075600E651FE4F44C06FD3A33CE1E0BE0724F050
:10076600F501E854FE4F3BC066D3A139E1E0BE0770
:1007760024F0F501EA57FE4F32C05DD3AF35E1E014
:10078600BE0724F0F501EC5AFE4F29C054D3AD3212
:10079600E1E0BE0724F0F501EE5DFE4F20C050D328
:1007A60024F0F501E051FF4F1AC04FD324F0F501B4
:1007B600E254FF4F14C04ED324F0F501E457FF4F27
:1007C6000EC04DD324F0F501E65AFF4F08C033D3CF
:1007D600D3971CF0F501B89602C0F5017E96E0931A
:1007E6006201F0936301F501E819F9091BD3A332FD
:1007F600E1E0BE0724F0F401E85EFE4F5AC01BD3C9
:10080600A931E1E0BE0724F0F401E25FFE4F51C0DA
:1008160012D3AF30E1E0BE0724F0F401EC5FFE4FE7
:1008260048C009D3A530E1E0BE0724F0F401E65044
:10083600FF4F3FC005D324F0F401EF51FF4F39C0FD
:10084600FAD2A23EE0E0BE0724F0F401E853FF4FDF
:1008560030C0FBD224F0F401E155FF4F2AC0EBD2A1
:10086600A03BE0E0BE0724F0F401EA56FF4F21C0AA
:10087600F1D224F0F401E358FF4F1BC0DCD2AE37AF
:10088600E0E0BE0724F0F401EC59FF4F12C0E7D2B6
:1008960024F0F401E55BFF4F0CC0CDD2AC34E0E0B0
:1008A600BE071CF0F401F29604C0C5D2D397F4013A
:1008B6007996E0936401F093650111C0EA34A0E0F3
:1008C600FA0711F4C5D00BC0EB34A0E0FA0711F417
:1008D600D9D005C0EC34A0E0FA0709F4F3D00895A6
:1008E600BA93AA932A978AE0BFD2E6E8F0E081D3CA
:1008F60074D3BDD220E030E0EE85FF85309751F508
:10090600B6D2B8D254F4BAD2FF93EF93A2E016DD72
:10091600AF91BF9102D2BAD2F4CFBBD2E093AA0173
:10092600F093AB01CED2A091AA01B091AB01CED289
:100936003CF0E1E0F0E0E093B201F093B30105C0D2
:10094600E0E0E093B201E093B301E091AA01F091F7
:10095600AB0157C0E130A0E0FA0741F588D28AD250
:1009660054F48CD2FF93EF93A1E0E8DCAF91BF91F2
:10097600D4D18CD2F4CF8DD2E093AC01F093AD01FB
:10098600A091AC01B091AD019CD2A0D22CF0E4EBC9
:10099600F1E0A1E0B0E003C0E4EBF1E065D2A083B2
:1009A600B183E091AC01F091AD012BC0E230A0E043
:1009B600FA0739F55CD25ED254F460D2FF93EF9316
:1009C600A0E0BCDCAF91BF91A8D160D2F4CF61D2D8
:1009D600E093AE01F093AF01A091AE01B091AF01EB
:1009E60070D274D22CF0E6EBF1E0A1E0B0E003C0E7
:1009F600E6EBF1E039D2A083B183E091AE01F0914C
:100A0600AF01F2D26096089564D266D268D2A09100
:100A1600B201B091B301119771F0E091B401F09178
:100A2600B501319741F0E091B601F091B701E1309F
:100A3600A0E0FA0739F4E1E0F0E0E093B001F093CA
:100A4600B10105C0E0E0E093B001E093B101089583
:100A56002297C1D23ED28F013FD29F0140D2AF0131
:100A6600021713071CF00E831F8302C02E833F83D9
:100A7600EE81FF814E175F0714F04E835F83CE80B1
:100A8600DF801DC02297A7D224D28F0125D29F01D5
:100A960026D2AF01201731071CF00E831F8302C038
:100AA6002E833F83EE81FF81E417F50714F04E8312
:100AB6005F83EE81FF81E0936001F093610192D242
:100AC6002896089588D22091600130916101A6018F
:100AD600F901E41BF50B8F010035E0E01E0724F059
:100AE600FA01E55BFF4F40C00B34E0E01E0724F03F
:100AF600FA01EA5BFF4F38C00634E0E01E0724F037
:100B0600FA01EF5BFF4F30C00134E0E01E071CF036
:100B1600FA01FC9629C00C33E0E01E071CF0FA012E
:100B2600F79622C00233E0E01E071CF0FA01BD96DC
:100B36001BC00832E0E01E071CF0FA01B39614C091
:100B46000E31E0E01E071CF0FA0179960DC0043163
:100B5600E0E01E071CF0FA013F9606C00A30E0E00E
:100B66001E0734F0FA013796E0936601F0936701A9
:100B760088C035D2EAE7F1E0B5D1ECE7F1E0B2D1D1
:100B8600EEE7F1E0AFD1E0E8F1E0ACD101E010E052
:100B96000230E0E01E07C4F485D0DFD0A7D1E5D04F
:100BA600F9D0ABD1FCD008D1A0918A01B0918B01CC
:100BB600ABD107D113D1ABD116D1A5D097D19DD149
:100BC600A6D11ED163D1E4CFC8D0CFD0E3D0E7D031
:100BD600F3D0F7D003D107D1A0917A01B0917B0170
:100BE600D9D0AE0FBF1FE8D0AE0FBF1FF7D08CD144
:100BF60007D1099119910895BCDF8ED11CF0E3E06D
:100C0600F0E00EC089D16CF490D11CF4E1E0F0E084
:100C160007C08BD11CF0E2E0F0E002C0E6E0F0E0B5
:100C26002F010895D8D1009162011091630120919E
:100C3600640130916501409166015091670176D05B
:100C46007ED00030E1E01E0744F00030E1E01E07F0
:100C560024F00F5F10408ED0F8CF8FD0A02F90D009
:100C66002030E1E03E0744F02030E1E03E0724F08A
:100C76002F5F30407FD0F8CF80D0A22FABDBA42FE0
:100C8600A9DBB0D126960895E150F0E0E854FE4F76
:100C96000895ED91FD913196FE93EE930895E0E06F
:100CA600EEBD0895BCDBC8DBD1DBDACBAB98A5E0A3
:100CB600B0E044D1E6E0EEBDA5E0B0E03FD1EFCF35
:100CC600F0918401E0E0DF01ECB5FDB5EA0FFB1F12
:100CD6000895E0E0F0E0FDBDECBDE0938401E09313
:100CE6008501AAE0B0E02AC1AB9AA5E0B0E026D122
:100CF600E6E0EEBDA5E0B0E021D1D1CFE0918801DC
:100D0600F09189010895E0918A01F0918B0108958F
:100D1600E0918C01F0918D010895F0E0ED93FC9344
:100D26000895E0919401F09195010895A0916801CC
:100D360051DBA0916A014EDBA091A6014BCBE0E00E
:100D4600E093A801E093A9010895A0917A01B091DA
:100D56007B01A030E1E0BE070895E0917A01F091B1
:100D66007B010895EF5FF0400895E0937A01F093D8
:100D76007B010895A8EAB1E08CCFA091A8012ACB07
:100D860029DBDDCFA0917C01B0917D01A030E1E0AF
:100D9600BE070895E0917C01F0917D010895E093EE
:100DA6007C01F0937D010895A0917E01B0917F01B1
:100DB600A030E1E0BE070895E0917E01F0917F0149
:100DC6000895E0937E01F0937F010895A09180013C
:100DD600B0918101A030E1E0BE070895E091800165
:100DE600F09181010895E0938001F09381010895C7
:100DF600A0919201B0919301A030E1E0BE07089561
:100E0600E0939201F09393010895E4DAA091B00182
:100E1600E1CAF2DEA0916801DDDAA0916A01DADAB0
:100E2600A42D0895E093A401F093A501A091A40137
:100E3600B091A5010895A091A401B091A5010895CE
:100E4600FADFAB3FE0E0BE070895F5DFA93CE0E03E
:100E5600BE070895F0DFA739E0E0BE070895EBDF8F
:100E6600A536E0E0BE070895A0E0B0E0089500E0F2
:100E760010E008950530E0E01E070895F801DE0150
:100E86001496EE0FFF1FEA0FFB1F08950F5F1F4F0B
:100E96000895EE81FF81AC81BD81EA0FFB1FA88515
:100EA600B985EA0FFB1FAA85BB85EA0FFB1FAC8538
:100EB600BD85EA0FFB1F9F01D901E5E0F0E05FD099
:100EC6000895E0916601F09167010895AE17BF0796
:100ED6000895A0E0B0E004CDA1E0B0E001CDA2E02D
:100EE600B0E0FECCC1DFA083B1830895A091860156
:100EF600B0918701EA0FFB1F0895A0918801B09178
:100F06008901EA0FFB1F0895EA0FFB1F0895A091C0
:100F16008C01B0918D01F8CFE0916201F0916301EF
:100F2600A0919201B0919301D1CFE0916401F0912B
:100F36006501A0919201B0919301C8CF109639F046
:100F460080EA9FE00197F1F7A8951197C9F70895F0
:100F5600F195E195F04008950024112490E1AA0F3F
:100F6600BB1F001C111C0E1A1F0A18F40E0E1F1EA2
:100F760001C0A1609A9599F7FD01D001089504D0AA
:100F8600EBDF0EF4E5DF0895E894F7FF02C0E0DF3B
:100F96006894B7FF06C0A095B095119600F8039423
:100FA60000FA089507D01196EF93EF2F03D0EF9133
:100FB60011970895E19B02C0A895FCCF9FB7F894BE
:100FC600AEBBBFBBE09A8DB3E81719F0EDBBE29A52
:100FD600E19A9FBF08955A934A933A932A931A9394
:100FE6000A9308955D814C813B812A81198108818C
:100FF6000895AC0FBD1F05900D928A95E1F70895EF
:00000001FF
