:0C00000023C0FECFFDCFFCCFFBCFFACF1A
:10000C004CC04FC0F7CFF6CFF5CFF4CFF3CFF2CF34
:10001C00F1CFF0CFEFCFEECFEDCF1027E803640098
:10002C000A00010000100001100001003C003E001D
:10003C00000002000600040038000000F894EE27CF
:10004C00ECBBF1E0FBBFEBBFE5BFF8E1F1BDE1BDFF
:10005C008DE0A2E0BB27ED938A95E9F780E094E070
:10006C00A0E6ED930197E9F7E0E4F0E08591959136
:10007C00009761F0A591B59105901590BF01F00125
:10008C0005900D920197E1F7FB01F0CFEFE5EDBF85
:10009C00E4E0EEBFC0E6D1E016C0EA93E1E08E2EBC
:1000AC0003C0EA93E1E09E2EE9911895AA93E881AA
:1000BC00E066E7B985E38A95F1F7369A349BFECF73
:1000CC00349AE5B1B5C140D0E0E012D2969A979837
:1000DC00A2E0B0E070D0A8ECB0E0A1D27894A42D4E
:1000EC00A2D1A62DA0D1A5E009D2A0916A019BD1E5
:1000FC00A3E004D2A091660196D1A7E0FFD1A09114
:10010C006E0191D1A0E0B0E095D1A09174018BD19A
:10011C00A4E0F4D1A091680186D1A6E0EFD1A09122
:10012C006C0181D1A0E0EAD1A09160017CD1A2E068
:10013C00E5D1A091640177D1A1E0B0E07BD1A09191
:10014C00760171D1CCCFFFCFE0E0E8BBE7BBE5BBDC
:10015C00E4BBE2BBE1BBE3BFE2BFEFBDEBE0EEBD56
:10016C00E0E0EDBDECBDE7BDE6BDE9E0EBBDE4ECE8
:10017C00EABDE7E0E9BDE0EDE8BDE0E0E2BDE5BDEC
:10018C00E4BDE3BDE5BFE8E1E9BFE0E0EBB9E8E0E1
:10019C00EAB9E6E8E0BDE0E0E0BDE7E6E9B9E0E8B1
:1001AC00E8B9E0E0E0BFE0E6E7B9E5E8E6B9E0E0B1
:1001BC00EDB9E6BF0895BA93AA93B39903C0E1E0F1
:1001CC00F0E004C0B39B03C0E2E0F0E05F01E88123
:1001DC00F981E130A0E0FA0719F4E0E0E0BD07C0D6
:1001EC00E230A0E0FA0721F4E0E0E0BDE7E6E9B98F
:1001FC00F894789416C1BA93AA93969B02C09698D9
:10020C0001C0969A979B02C0979801C0979AE0E01C
:10021C00EEBD99248824E0E0F0E0FDBDECBDE8B330
:10022C00E070E8BBE7B3E070E7BBE5B3E070E5BBBB
:10023C00E4B3E070E4BBEBE0EEBDE881F98130970C
:10024C00D1F4A09AA89A5CD1A898A0985DD1989B5B
:10025C0002C0992009F001C0FACF989902C09920E8
:10026C0009F001C0FACF54D1989B02C0992009F033
:10027C0001C0FACFB3C0E230A0E0FA07D1F4A19AE2
:10028C00A99A3ED1A998A1983FD1999B02C09920D7
:10029C0009F001C0FACF999902C0992009F001C068
:1002AC00FACF36D1999B02C0992009F001C0FACF40
:1002BC0095C0E330A0E0FA07D1F4A39AAB9A20D111
:1002CC00AB98A39821D19B9B02C0992009F001C047
:1002DC00FACF9B9902C0992009F001C0FACF18D12E
:1002EC009B9B02C0992009F001C0FACF77C0E43083
:1002FC00A0E0FA07D1F4B89AC09A02D1C098B89885
:10030C0003D1B09B02C0992009F001C0FACFB0997B
:10031C0002C0992009F001C0FACFFAD0B09B02C0FC
:10032C00992009F001C0FACF59C0E530A0E0FA07D6
:10033C00D1F4A59AAD9AE4D0AD98A598E5D09D9B43
:10034C0002C0992009F001C0FACF9D9902C09920F2
:10035C0009F001C0FACFDCD09D9B02C0992009F0B6
:10036C0001C0FACF3BC0E630A0E0FA07D1F4A49A62
:10037C00AC9AC6D0AC98A498C7D09C9B02C09920CC
:10038C0009F001C0FACF9C9902C0992009F001C074
:10039C00FACFBED09C9B02C0992009F001C0FACFC5
:1003AC001DC0E730A0E0FA07D9F4B99AC19AA8D0D9
:1003BC00C198B998A9D0B19B02C0992009F001C08D
:1003CC00FACFB19902C0992009F001C0FACFA0D0A0
:1003DC00B19B02C0992009F001C0FACFE0E0EEBD5C
:1003EC00E881F981A0E6B1E095D0FF93EF93ECB5ED
:1003FC00FDB595D0A0E0B0E686E896E405D2A0E085
:10040C00B0E080E892E48FD0E0E0F4E264E77BE4D3
:10041C0049D23CD1AF91BF918AD0EBE0EEBDE0E088
:10042C00EEBD22960895AA935D9BFECFE881ECB9B0
:10043C0021960895BA93AA939DD200E010E0CC24A3
:10044C00DD24E0E0E0937001E0937101E093720130
:10045C00E0937301E0938401E0938501E6E8F1E019
:10046C0069D0E8E8F1E066D0EAE8F1E063D0ECE8C6
:10047C00F1E060D0EA81FB813097D1F400E010E02C
:10048C000530E0E01E0774F4A2E059D0FF93EF931F
:10049C006ED07AD0AF91BF918BD008F097D00F5F10
:1004AC001F4FEECF9DD0E0937401F09375011DC0EA
:1004BC00E130A0E0FA07C9F400E010E00530E0E01C
:1004CC001E0774F4A7E03BD0FF93EF9350D05CD0A1
:1004DC00AF91BF916DD008F079D00F5F1F4FEECF69
:1004EC007FD0E0937601F093770147D2249608955C
:1004FC00EEBDE0E0F0E0FDBDECBD0895B0E07BCEDC
:10050C008BE18A95F1F7089585E18A95F1F70895C5
:10051C00EBE0EECFEE0FFF1FEA0FFB1F08956627EF
:10052C007727EDD0089570D1DF01CB010895ED93BD
:10053C00FC930895A0E0B0E0A083B1830895B6DDEC
:10054C00CE2EDD24F601EBDFDF01CB01E0E0F0E0A5
:10055C006CE472E4A7D1E0937001F09371016093A5
:10056C00720170937301F801A4E8B1E0D3CFE0916C
:10057C007001F09171016091720170917301ABE0A7
:10058C00B4E288EA9DE3CFCFE7E2F0EA69E87BE3E7
:10059C00E4D1E8D0A0E0B0E080E89FE383D1DF01B4
:1005AC00CB01EDE3FAE067ED7EE3D7D1DBD0089524
:1005BC006DD0BDDFF801A4E8B1E0EE0FFF1FAE0F68
:1005CC00BF1FC7D1E135A0E0FA070895F801A4E8F0
:1005DC00B1E0EE0FFF1FAE0FBF1FE1E5F0E0A7CFBC
:1005EC00E0918601F0918701A0918401B091850181
:1005FC00AE0FBF1FE0918801F0918901AE0FBF1FB4
:10060C00E0918A01F0918B01AE0FBF1FE0918C013C
:10061C00F0918D01AE0FBF1FFD0191D10895109681
:10062C0039F080EA9FE00197F1F7A8951197C9F787
:10063C000895552342F4503811F4E0FF04C031966C
:10064C00691F791F6BF050E8572711F45F93CAC0EC
:10065C005F3F31F0660F000C57956795752F089525
:10066C005F9300200AF0CAC0C3C050E8192E1522AF
:10067C00880F991F9527550F879550E8072E05224F
:10068C00660F771F7527550F67950895689401C0FD
:10069C00E8945F93F2DF703818F07F3F08F4A2C043
:1006AC0056E1571BAAF4519558300EF4593030F0DE
:1006BC00EFEFFFEF6FEF7FE777F91AC0772755233E
:1006CC00B9F0EE0FFF1F661F771F5A95D1F710C0B8
:1006DC007727583028F0EF2FF62F672F5850F9CF87
:1006EC00552331F076956795F795E7955A95D1F79F
:1006FC0000200AF41CD15F910895689401C0E8941D
:10070C00309760407040B1F0002426F0772312F44B
:10071C0000940DD1172E7EE1112032F07A95EE0F58
:10072C00FF1F661F111CF9CFEF2FF62F612D5F9362
:10073C008ADF5F9108954F93AF01FD01DA01AB01A0
:10074C00BC01CA01402D012C142E4F910895EA0FC3
:10075C00FB1F681F0895E095F0956095EF5FFF4FC4
:10076C006F4F08955F9381DF903849F150E815265B
:10077C00703821F1572F591B2BF112F4DCDFFACF13
:10078C00583118F0AA27BB278827583028F0AB2FF0
:10079C00B82F88275850F9CF552329F08695B7954F
:1007AC00A7955A95D9F7502D512572F0D0DF38F412
:1007BC006795F795E795739513F420C0BCDF43DF7D
:1007CC005F910895D8F7FBCFEA1BFB0B680B51F038
:1007DC0010F40094C0DF662392F3EE0FFF1F661F28
:1007EC007A95CBF7EE27FF27662777275F91089539
:1007FC00EFEFFFEF6FE77FEF5F910895EFEFFFEF04
:10080C006FE77FE75F9108955F932FDF703851F3A7
:10081C00903841F301240894791F23F41CF3002031
:10082C003AF3ECCF0F921F932F933F934F931127D3
:10083C0022279927689FA0018F9F302D410D591FAA
:10084C006B9F300D411D591F8E9F27D0BF9F25D008
:10085C006A9F23D0BE9F1DD0AF9F1BD0AE9F110DA2
:10086C00291F391F491F591FE32FF42F652F522FB2
:10087C004F913F912F911F910F9066232AF0550FA6
:10088C00EE1FFF1F661F02C073954BF2D2DE5F9105
:10089C000895100D211D391F02C0200D311D491F57
:1008AC00591F08955F93E1DE703821F411200AF48A
:1008BC009FCFA4CF903809F495CF01240894970BBF
:1008CC001BF4D4F30020F3CF792F1F932F933F9376
:1008DC004F9311241127222733274427552790E2C1
:1008EC00AE17BF078607410730F0AE1BBF0B860B58
:1008FC00410B089401C08894551F221F331F111CF3
:10090C00AA1FBB1F881F441F9A9551F7F901612D2F
:10091C004F913F912F911F91662332F0550FEE1F8F
:10092C00FF1F661F7A9543F284DE5F910895F09560
:10093C0060957095E195FF4F6F4F7F4F0895F69539
:10094C00E795F695E79508956F2F660F660B762F52
:10095C000895ED91FC9111970895182E862F612D15
:10096C00192E972F712D1B2EBF2FF12D1A2EAE2F56
:10097C00E12D08951A930A93089519810881089519
:00000001FF
