:0A00000023C0FECFFDCFFCCFFBCFE5
:10000A00FACF4CC04FC0F7CFF6CFF5CFF4CFF3CF2E
:10001A00F2CFF1CFF0CFEFCFEECFEDCF1027E8033D
:10002A0064000A0001000010000110000100020033
:10003A003C003E000000060004003A000000F8946C
:10004A00EE27ECBBF1E0FBBFEBBFE5BFF8E1F1BD8A
:10005A00E1BD8DE0A2E0BB27ED938A95E9F780E048
:10006A0094E0A0E6ED930197E9F7E0E4F0E08591EA
:10007A009591009761F0A591B59105901590BF01F2
:10008A00F00105900D920197E1F7FB01F0CFEFE542
:10009A00EDBFE4E0EEBFC0E6D1E016C0EA93E1E0CE
:1000AA008E2E03C0EA93E1E09E2EE9911895AA9359
:1000BA00E881E066E7B985E38A95F1F7369A349BD9
:1000CA00FECF349AE5B18BC141D0E0E013D2969AC3
:1000DA009798A2E0B0E071D0A8EC12D2B8D2789486
:1000EA00A42D78D1A62D76D1A5E00CD2A0916A01D3
:1000FA000BD20DD2A7E006D2A0916E0105D202D290
:10010A00A091660101D205D2A0917A01FDD1FFD159
:10011A00A2E0FFD1A0917801F7D1F9D1A0E0F9D1FD
:10012A00A0917401F1D1F3D1A6E0ECD1A0916C01B8
:10013A0051D1A4E0E7D1A09168014CD1A1E0E9D165
:10014A00A0917601E1D1E3D1CBCFFFCFE0E0E8BBCC
:10015A00E7BBE5BBE4BBE2BBE1BBE3BFE2BFEFBD8C
:10016A00EBE0EEBDE0E0EDBDECBDE7BDE6BDE9E0EC
:10017A00EBBDE4ECEABDE7E0E9BDE0EDE8BDE0E0B7
:10018A00E2BDE5BDE4BDE3BDE5BFE8E1E9BFE0E00E
:10019A00EBB9E8E0EAB9E6E8E0BDE0E0E0BDE7E6B1
:1001AA00E9B9E0E8E8B9E0E0E0BFE0E6E7B9E5E8A8
:1001BA00E6B9E0E0EDB9E6BF0895BA93AA93B39918
:1001CA0003C0E1E0F0E004C0B39B03C0E2E0F0E06A
:1001DA005F01E881F981E130A0E0FA0719F4E0E073
:1001EA00E0BD07C0E230A0E0FA0721F4E0E0E0BD9C
:1001FA00E7E6E9B9F8947894EBC0BA93AA93969B88
:10020A0002C0969801C0969A979B02C0979801C01F
:10021A00979AE0E0EEBD99248824E0E0F0E0FDBD85
:10022A00ECBDE8B3E070E8BBE7B3E070E7BBE5B369
:10023A00E070E5BBE4B3E070E4BBEBE0EEBDE8815F
:10024A00F981E330A0E0FA07E9F4A39AAB9A63D103
:10025A00AB98A39864D19B9B02C065D109F001C0F9
:10026A00FACFA0E09B99A1E0A03011F45CD109F08B
:10027A0001C0F7CF5BD19B9B02C055D109F001C0E9
:10028A00FACF83C0E430A0E0FA07E9F4A49AAC9A62
:10029A0042D1AC98A49843D19C9B02C044D109F0A6
:1002AA0001C0FACFA0E09C99A1E0A03011F43BD1A3
:1002BA0009F001C0F7CF3AD19C9B02C034D109F0B2
:1002CA0001C0FACF62C0E530A0E0FA07E9F4A59AC6
:1002DA00AD9A21D1AD98A59822D19D9B02C023D178
:1002EA0009F001C0FACFA0E09D99A1E0A03011F475
:1002FA001AD109F001C0F7CF19D19D9B02C013D1C1
:10030A0009F001C0FACF41C0E630A0E0FA07E9F4EB
:10031A00B89AC09A00D1C098B89801D1B09B02C0CF
:10032A0002D109F001C0FACFA0E0B099A1E0A03053
:10033A0011F4F9D009F001C0F7CFF8D0B09B02C090
:10034A00F2D009F001C0FACF20C0E730A0E0FA07E6
:10035A00F1F4B99AC19ADFD0C198B998E0D0B19BAB
:10036A0002C0E1D009F001C0FACFA0E0B199A1E042
:10037A00A03011F4D8D009F001C0F7CFD7D0B19B83
:10038A0002C0D1D009F001C0FACFE0E0EEBDE881A9
:10039A00F981A0E6B1E0CCD0FF93EF93ECB5FDB5BF
:1003AA00CCD0A0E0B0E686E896E446D2A0E0B0E081
:1003BA0080E892E4C6D0E0E0F4E264E77BE48AD223
:1003CA007DD1AF91BF91C1D0EBE0EEBDE0E0EEBDD3
:1003DA0022960895AA935D9BFECFE881ECB92196F7
:1003EA000895BA93AA93DED2B3D0CC24DD24E0E0F8
:1003FA00E0937001E0937101E0937201E09373015D
:10040A00E0938401E0938501E6E8F1E0A4D0E8E80E
:10041A00F1E0A1D0EAE8F1E09ED0ECE8F1E09BD06F
:10042A00EA81FB813097B1F493D09AD06CF4A1E0C1
:10043A009BD0FF93EF93B0D0BCD0AF91BF91CDD0FA
:10044A0008F0D9D0E2D0F1CFE3D0E0937401F09371
:10045A0075014DC0E130A0E0FA07B1F479D080D03F
:10046A006CF4A7E081D0FF93EF9396D0A2D0AF911E
:10047A00BF91B3D008F0BFD0C8D0F1CFC9D0E093B4
:10048A007601F093770133C0E230A0E0FA07B1F4C5
:10049A005FD066D06CF4A0E067D0FF93EF937CD076
:1004AA0088D0AF91BF9199D008F0A5D0AED0F1CF46
:1004BA00AFD0E0937801F093790119C0E330A0E05E
:1004CA00FA07A9F445D04CD06CF4A2E04DD0FF93C2
:1004DA00EF9362D06ED0AF91BF917FD008F08BD0EE
:1004EA0094D0F1CF95D0E0937A01F0937B015DD25D
:1004FA0024960895EEBDE0E0F0E0FDBDECBD089560
:10050A00B0E00895FDDF79CE65DFA3E00895F8DF56
:10051A009EC0F6DF66CF8BE18A95F1F7089585E1F3
:10052A008A95F1F70895E0E0E9150895EBE0E2CF46
:10053A00EE0FFF1FEA0FFB1F089566277727F7D0F4
:10054A0008957AD1DF01CB010895ED93FC930895C4
:10055A0000E010E00895A0E0B0E0A083B183089520
:10056A000530E0E01E070895A2DDCE2EDD24F60157
:10057A00E4DFDF01CB01E0E0F0E06CE472E4AAD151
:10058A00E0937001F09371016093720170937301AB
:10059A00F801A4E8B1E0CCCFE0917001F0917101CB
:1005AA006091720170917301ABE0B4E288EA9DE355
:1005BA00C8CFE7E2F0EA69E87BE3E7D1EBD0A0E055
:1005CA00B0E080E89FE386D1DF01CB01EDE3FAE0FA
:1005DA0067ED7EE3DAD1DED0089570D0B6DFF80198
:1005EA00A4E8B1E0EE0FFF1FAE0FBF1FCAD1E1357D
:1005FA00A0E0FA070895F801A4E8B1E0EE0FFF1FA2
:10060A00AE0FBF1FE1E5F0E0A0CF0F5F1F4F0895C7
:10061A00E0918601F0918701A0918401B091850152
:10062A00AE0FBF1FE0918801F0918901AE0FBF1F85
:10063A00E0918A01F0918B01AE0FBF1FE0918C010E
:10064A00F0918D01AE0FBF1FFD0191D10895109653
:10065A0039F080EA9FE00197F1F7A8951197C9F759
:10066A000895552342F4503811F4E0FF04C031963E
:10067A00691F791F6BF050E8572711F45F93CAC0BE
:10068A005F3F31F0660F000C57956795752F0895F7
:10069A005F9300200AF0CAC0C3C050E8192E152281
:1006AA00880F991F9527550F879550E8072E052221
:1006BA00660F771F7527550F67950895689401C0CF
:1006CA00E8945F93F2DF703818F07F3F08F4A2C015
:1006DA0056E1571BAAF4519558300EF4593030F0B0
:1006EA00EFEFFFEF6FEF7FE777F91AC07727552310
:1006FA00B9F0EE0FFF1F661F771F5A95D1F710C08A
:10070A007727583028F0EF2FF62F672F5850F9CF58
:10071A00552331F076956795F795E7955A95D1F770
:10072A0000200AF41CD15F910895689401C0E894EE
:10073A00309760407040B1F0002426F0772312F41D
:10074A0000940DD1172E7EE1112032F07A95EE0F2A
:10075A00FF1F661F111CF9CFEF2FF62F612D5F9334
:10076A008ADF5F9108954F93AF01FD01DA01AB0172
:10077A00BC01CA01402D012C142E4F910895EA0F95
:10078A00FB1F681F0895E095F0956095EF5FFF4F96
:10079A006F4F08955F9381DF903849F150E815262D
:1007AA00703821F1572F591B2BF112F4DCDFFACFE5
:1007BA00583118F0AA27BB278827583028F0AB2FC2
:1007CA00B82F88275850F9CF552329F08695B79521
:1007DA00A7955A95D9F7502D512572F0D0DF38F4E4
:1007EA006795F795E795739513F420C0BCDF43DF4F
:1007FA005F910895D8F7FBCFEA1BFB0B680B51F00A
:10080A0010F40094C0DF662392F3EE0FFF1F661FF9
:10081A007A95CBF7EE27FF27662777275F9108950A
:10082A00EFEFFFEF6FE77FEF5F910895EFEFFFEFD5
:10083A006FE77FE75F9108955F932FDF703851F379
:10084A00903841F301240894791F23F41CF3002003
:10085A003AF3ECCF0F921F932F933F934F931127A5
:10086A0022279927689FA0018F9F302D410D591F7C
:10087A006B9F300D411D591F8E9F27D0BF9F25D0DA
:10088A006A9F23D0BE9F1DD0AF9F1BD0AE9F110D74
:10089A00291F391F491F591FE32FF42F652F522F84
:1008AA004F913F912F911F910F9066232AF0550F78
:1008BA00EE1FFF1F661F02C073954BF2D2DE5F91D7
:1008CA000895100D211D391F02C0200D311D491F29
:1008DA00591F08955F93E1DE703821F411200AF45C
:1008EA009FCFA4CF903809F495CF01240894970B91
:1008FA001BF4D4F30020F3CF792F1F932F933F9348
:10090A004F9311241127222733274427552790E292
:10091A00AE17BF078607410730F0AE1BBF0B860B29
:10092A00410B089401C08894551F221F331F111CC4
:10093A00AA1FBB1F881F441F9A9551F7F901612D01
:10094A004F913F912F911F91662332F0550FEE1F61
:10095A00FF1F661F7A9543F284DE5F910895F09532
:10096A0060957095E195FF4F6F4F7F4F0895F6950B
:10097A00E795F695E79508956F2F660F660B762F24
:10098A000895ED91FC9111970895182E862F612DE7
:10099A00192E972F712D1B2EBF2FF12D1A2EAE2F28
:1009AA00E12D08951A930A930895198108810895EB
:00000001FF
