:0400000055C0FECF1A
:10000400FDCFFCCFFBCFFACFF9CFF8CFF7CFF6CFA8
:10001400F5CF79C0F3CFF2CFF1CFF0CFEFCFEECF62
:10002400EDCF1027E80364000A000100001000016E
:100034001000010000003C003E000100020003002B
:1000440004000500060007000800000001002D4E12
:10005400414E00494E4600000100020038000100F4
:100064007A013A0001007C013C00010082013E005B
:100074000100840140000100860142000100880162
:10008400440001008A01460001008C01480001007F
:100094008E014A00010090014C0002000C004E0049
:1000A4000100920150000000F894EE27ECBBF1E04F
:1000B400FBBFEBBFE5BFF8E1F1BDE1BD8DE0A2E020
:1000C400BB27ED938A95E9F780E094E0A0E6ED93F1
:1000D4000197E9F7ECE5F0E085919591009761F0DF
:1000E400A591B59105901590BF01F00105900D9271
:1000F4000197E1F7FB01F0CFEFE5EDBFE4E0EEBFE0
:10010400C0E6D1E02EC0EA93FA93EFB7EA934AD15E
:100114001BB10CB1E12FEC7189F4E72D739425D157
:10012400E05AFE4F0083E8E0E71509F4772493943E
:10013400E8E0E91519F49924689420F836D1E99196
:10014400EFBFF991E9911895AA93E881E066E7B9C0
:1001540085E38A95F1F7369A349BFECF349AE5B15C
:10016400F7C0C2D0A0E0F0DF00D1E0936801F093C3
:100174006901A1E0E9DFAAE6B1E0F9D0A2E0E4DF99
:10018400ACE6B1E0F4D0A3E0DFDFAEE6B1E0EFD05F
:10019400A4E0DADFA0E7B1E0EAD0A5E0D5DFA2E78A
:1001A400B1E0E5D0A6E0D0DFA4E7B1E0E0D0A7E07D
:1001B400CBDFA6E7B1E0DBD0A0907001B090710175
:1001C400DAD0DED0A0916A01B0916B01DCD0A091AD
:1001D4006C01B0916D01D7D0A0916E01B0916F0107
:1001E400D2D0A0917001B0917101CDD0A0917201D3
:1001F400B0917301C8D0A0917401B0917501C3D0BE
:10020400A0917601B0917701A5D0E0937E01F0939F
:100214007F01BFD0A436E0E0BE0708F455C0E091EA
:100224007001F0917101BAD029F4C0909001D0907E
:10023400910149C0E0916E01F0916F01AFD029F4B2
:10024400C0908801D09089013EC0E0916C01F0918A
:100254006D01A4D029F4C0908601D090870133C0E9
:10026400E0917201F091730199D029F4C0908A0150
:10027400D0908B0128C0E0916A01F0916B018ED07F
:1002840029F4C0908401D09085011DC0E0917401CF
:10029400F091750183D029F4C0908C01D0908D0128
:1002A40012C069D07BD029F4C0908201D090830120
:1002B4000AC0E0917601F091770170D021F4C090EA
:1002C4008E01D0908F0104C0C0908001D090810134
:1002D400A0917A0138D0A0917C0135D0AC2D33D0D7
:1002E400AA2D31D03FCFFFCFE0E0E8BBE7BBE5BBB1
:1002F400E4BBE2BBE1BBE3BFE2BFEFBDEEBDEDBDDE
:10030400ECBDE7BDE6BDEBBDEABDE9BDE8BDE2BDC0
:10031400E5BDE4BDE3BDE5BFE9BFEBB9E8E9EAB992
:10032400E6E8E0BDE0E0E0BDE7E6E9B9E0E8E8B929
:10033400E0E0E0BFE0E6E7B9E4E8E6B9E0E0EDB923
:10034400E6BF78940895AA935D9BFECFE881ECB94B
:1003540021960895BA93AA93A991B991E991F99133
:10036400AE17BF070CF0FD010895F0E00895FDDF1E
:10037400ED93FC930895E0916801F091690108956B
:10038400FA93EA930895E6DFE0937E01F0937F0108
:10039400F7CFA0917E01B0917F010895FADFEA17AB
:1003A400FB0708951A930A930895099119910895E2
:00000001FF
