:0C00000071C0FECFFDCFFCCFFBCFFACFCC
:10000C00F9CFF8CFE1C0F6CFF5CF95C0F3CFF2CF53
:10001C00F1CFF0CFEFCFEECFEDCF1027E803640098
:10002C000A0001000010000110000100000041074F
:10003C00B401900036003C003E007C0029002A00F0
:10004C002B002C002D002E0035005E0053004100CB
:10005C00420058005E004100420043005A00580024
:10006C0046004700480049004A004B004D004C0038
:10007C00520053000100D0073F0C5200000000005A
:10008C00000000000000000001002D4E414E004910
:10009C004E460000010002003800020064013A00E4
:1000AC00020066013C00010068013E0001006A018B
:1000BC00400001006C01420001006E01440001008F
:1000CC00700160000100A60186000200040092008D
:1000DC000100C30194000000F894EE27ECBBF1E0A2
:1000EC00FBBFEBBFE5BFF8E1F1BDE1BD8DE0A2E0E8
:1000FC00BB27ED938A95E9F780E094E0A0E6ED93B9
:10010C000197E9F7E0EAF0E085919591009761F0AD
:10011C00A591B59105901590BF01F00105900D9238
:10012C000197E1F7FB01F0CFEFE5EDBFE4E0EEBFA7
:10013C00C0E6D1E066C0AA93EA93FA93EFB7EA93CC
:10014C00CBD61BB10CB1E12FEC71D1F4E091C00115
:10015C00EF5FE093C00147D50083A091C001A830A8
:10016C0019F4E0E0E093C001A091C201AF5FA0934D
:10017C00C201A83029F4E0E0E093C201689420F8B1
:10018C00B5D6E991EFBFF991E991A99118951A9318
:10019C00E091C201E030E1F3E091C101EF5FE09347
:1001AC00C10121D51081A091C101A83019F4E0E062
:1001BC00E093C101F894E091C201E150E093C201D7
:1001CC007894E12F19910895AA93BA93EA93FA932C
:1001DC00EFB7EA93A6E8B1E00BD5E991EFBFF9913F
:1001EC00E991B991A9911895AA93E881E066E7B9CC
:1001FC0085E38A95F1F7369A349BFECF349AE5B1B4
:10020C0043C006D0A3E0FAD441D08CD0FECFFFCFB0
:10021C00E0E0E8BBE7E0E7BBE0E2E5BBE8E3E4BB3A
:10022C00E8E1E2BBE1BBE0E0E3BFE2BFEFBDE8D455
:10023C00E0E0EDBDECBDE7BDE6BDEBBDEABDE9BD63
:10024C00E8BDE2BDE5BDE4BDE3BDE5BFE4E0E9BF6B
:10025C00E0E0EBB9E8E9EAB9E6E8E0BDE0E0E0BDF2
:10026C00E7E6E9B9E0E8E8B9E0E0E0BFE0E6E7B9E5
:10027C00E5E8E6B9E0E0EDB9E6BF78940895AA9315
:10028C005D9BFECFE881ECB921960895BA93AA93B1
:10029C00E881F981309711F4C098C198A881B9818F
:1002AC00119711F4C098C19AA881B981129711F4D1
:1002BC00C09AC198A881B981139711F4C09AC19AB8
:1002CC002296089504D010D019D022D00895C29847
:1002DC009AD4A3D4E0938801F0938901A7D4E09138
:1002EC008801F09189010895C29AABD496D4E09319
:1002FC008A01F0938B019AD4AED40895C298A1D4FC
:10030C008CD4E0938C01F0938D0190D4A9D40895F2
:10031C00C29A79D482D4E0938E01F0938F0186D463
:10032C00A4D4089534DFA8E9B1E0A4D4A091980135
:10033C00B0919901E0917001F09171019FD469F035
:10034C00A0D4E0939601F0939701E0919801F0917D
:10035C009901E0939401F093950193D4E134A0E0DA
:10036C00FA0709F062C092D49AD49FD46CF09DD451
:10037C005CF0E0917C01F0917D019FD4E0937C01D5
:10038C00F0937D019DD4F3CF9ED4A0917C019ED49B
:10039C009FD46CF09DD45CF0E0917E01F0917F01D4
:1003AC008CD4E0937E01F0937F018AD4F3CF8BD46D
:1003BC00A0917E018BD494D46CF092D45CF0E0913B
:1003CC008001F091810179D4E0938001F093810157
:1003DC0077D4F3CF78D4A091800178D489D46CF001
:1003EC0087D45CF0E0918201F091830166D4E093B4
:1003FC008201F093830164D4F3CF65D4A091820180
:10040C0065D47ED46CF07CD45CF0E0919201F091D8
:10041C00930153D4E0939201F093930151D4F3CF11
:10042C0052D4A09192012BDFD1C1E234A0E0FA07A3
:10043C0091F47AD22BD4A091AA0121DFA091AC0126
:10044C001EDFA091AE0164D4A091680118DFA091C9
:10045C006A0115DFBBC1E334A0E0FA0721F45CD4D8
:10046C00A42D56D4B3C1E235A0E0FA0759F4A091FB
:10047C006C0105DFA0916E0102DFA42D00DFA0E06E
:10048C00FEDEA4C1E335A0E0FA0721F445D4A0E0D8
:10049C003FD49CC1EA35A0E0FA07A9F413DFDBD303
:1004AC00A0E0B0E0FCD4DCD3A2E0B0E0F8D4DDD323
:1004BC00A4E0B0E0F4D4E0919001F0919101A6E0B9
:1004CC00B0E0EDD483C1E835A0E0FA0711F453D3C2
:1004DC007DC1E634A0E0FA0729F460909201709097
:1004EC00930174C1E734A0E0FA0729F480909201DB
:1004FC00909093016BC1E834A0E0FA0729F4A09026
:10050C009201B090930162C1E934A0E0FA0709F0BE
:10051C0046C1F301EA19FB0906D4A937E5E0BE0789
:10052C0024F0F501E259FA4FCBC006D4A734E5E02C
:10053C00BE0724F0F501E45CFA4FC2C0FDD3A5312F
:10054C00E5E0BE0724F0F501E65FFA4FB9C0F4D33D
:10055C00A33EE4E0BE0724F0F501E852FB4FB0C027
:10056C00EBD3A13BE4E0BE0724F0F501EA55FB4FC9
:10057C00A7C0E2D3AF37E4E0BE0724F0F501EC5896
:10058C00FB4F9EC0D9D3AD34E4E0BE0724F0F50197
:10059C00EA55FB4F95C0D0D3AB31E4E0BE0724F055
:1005AC00F501E05FFB4F8CC0C7D3A93EE3E0BE076B
:1005BC0024F0F501E252FC4F83C0BED3A73BE3E02D
:1005CC00BE0724F0F501E455FC4F7AC0B5D3A5382D
:1005DC00E3E0BE0724F0F501E658FC4F71C0ACD344
:1005EC00A335E3E0BE0724F0F501E85BFC4F68C0DF
:1005FC00A3D3A132E3E0BE0724F0F501EA5EFC4F81
:10060C005FC09AD3AD3BE2E0BE0724F0F501EE5497
:10061C00FD4F56C091D3A935E2E0BE0724F0F50199
:10062C00E25BFD4F4DC088D3A53FE1E0BE0724F04F
:10063C00F501E651FE4F44C07FD3A33CE1E0BE0779
:10064C0024F0F501E854FE4F3BC076D3A139E1E02C
:10065C00BE0724F0F501EA57FE4F32C06DD3AF351B
:10066C00E1E0BE0724F0F501EC5AFE4F29C064D33B
:10067C00AD32E1E0BE0724F0F501EE5DFE4F20C087
:10068C0060D324F0F501E051FF4F1AC05FD324F082
:10069C00F501E254FF4F14C05ED324F0F501E4578A
:1006AC00FF4F0EC05DD324F0F501E65AFF4F08C092
:1006BC0043D3D3971CF0F501B89602C0F5017E9692
:1006CC00E0936401F0936501F501E819F9092BD366
:1006DC00A332E1E0BE0724F0F401E85EFE4F5AC0FD
:1006EC002BD3A931E1E0BE0724F0F401E25FFE4F09
:1006FC0051C022D3AF30E1E0BE0724F0F401EC5F2F
:10070C00FE4F48C019D3A530E1E0BE0724F0F40138
:10071C00E650FF4F3FC015D324F0F401EF51FF4FCB
:10072C0039C00AD3A23EE0E0BE0724F0F401E8533E
:10073C00FF4F30C00BD324F0F401E155FF4F2AC01A
:10074C00FBD2A03BE0E0BE0724F0F401EA56FF4FD9
:10075C0021C001D324F0F401E358FF4F1BC0ECD2AD
:10076C00AE37E0E0BE0724F0F401EC59FF4F12C0A5
:10077C00F7D224F0F401E55BFF4F0CC0DDD2AC34B2
:10078C00E0E0BE071CF0F401F29604C0D5D2D3977A
:10079C00F4017996E0936601F093670117C0EA348F
:1007AC00A0E0FA0711F401D111C0EB34A0E0FA0774
:1007BC0011F412D10BC0ED34A0E0FA0711F4DBD028
:1007CC0005C0EC34A0E0FA0709F420D10895BA93DF
:1007DC00AA932A978AE0A0E0B0E0E8E8F0E089D399
:1007EC0079D3C3D220E030E0EE85FF85309781F5D8
:1007FC00BCD2BED25CF4C0D2FF93EF93A2E0F4DC87
:10080C00AF91BF9137D20F5F1F4FF3CFBDD2E093A3
:10081C00AA01F093AB01D0D2D4D2AE17BF071CF013
:10082C00E1E0F0E00CC0D2D2CCD228D234F0E0E03F
:10083C00E093B201E093B30106C0E2E0F0E0E09394
:10084C00B201F093B301E091AA01F091AB0169C040
:10085C00E130A0E0FA0789F588D28AD25CF48CD218
:10086C00FF93EF93A1E0C0DCAF91BF9103D20F5F78
:10087C001F4FF3CF89D2E093AC01F093AD01ABD213
:10088C009BD2AE17BF072CF0E4EBF1E0A1E0B0E097
:10089C000DC0A1D29BD2F2D12CF0E4EBF1E0A0E0A0
:1008AC00B0E004C0E4EBF1E0A2E0B0E0A083B183DF
:1008BC00E091AC01F091AD0134C0E230A0E0FA0758
:1008CC0081F553D255D25CF457D2FF93EF93A0E04D
:1008DC008BDCAF91BF91CED10F5F1F4FF3CF54D2B2
:1008EC00E093AE01F093AF017BD266D2AE17BF0797
:1008FC002CF0E6EBF1E0A1E0B0E00DC071D266D2D5
:10090C00BDD12CF0E6EBF1E0A0E0B0E004C0E6EBEA
:10091C00F1E0A2E0B0E0A083B183E091AE01F091F0
:10092C00AF01DFD26096089560D262D264D266D2F3
:10093C00119741F068D2319729F06AD2E130A0E0EA
:10094C00FA0721F4E1E0F0E068D214C057D2129714
:10095C0041F059D2329729F05BD2E230A0E0FA078D
:10096C0021F4E2E0F0E059D205C0E0E0E093B00100
:10097C00E093B101089556D28F013AD29F013BD238
:10098C00AF01021713071CF00E831F8302C02E83C6
:10099C003F834BD24E175F0714F04E835F8345D2D3
:1009AC00E0936201F09363011BC13CD28F0120D212
:1009BC009F0121D2AF01021713071CF00E831F8376
:1009CC0002C02E833F8331D24E175F0714F04E8343
:1009DC005F83CE80DF8004C125D28F0109D29F01B5
:1009EC000AD2AF01201731071CF00E831F8302C0FF
:1009FC002E833F831AD2E417F50714F04E835F83DE
:100A0C0014D2E0936001F0936101EAC0249760D2A4
:100A1C004091600150916101C886D986E0916201D4
:100A2C00F0916301EE83FF83A885B985FA01EA1B77
:100A3C00FB0B8F01AE81BF81FBD1EA1BFB0B9F012E
:100A4C000035E0E01E0724F0F3D1E55BFF4F40C01A
:100A5C000B34E0E01E0724F0EBD1EA5BFF4F38C00B
:100A6C000634E0E01E0724F0E3D1EF5BFF4F30C00B
:100A7C000134E0E01E071CF0DBD1FC9629C00C33DE
:100A8C00E0E01E071CF0D4D1F79622C00233E0E060
:100A9C001E071CF0CDD1BD961BC00832E0E01E072E
:100AAC001CF0C6D1B39614C00E31E0E01E071CF04A
:100ABC00BFD179960DC00431E0E01E071CF0B8D10F
:100ACC003F9606C00A30E0E01E0734F0B1D13796ED
:100ADC00E0936801F09369012035E0E03E0724F0D3
:100AEC00A7D1EB54F04040C02B34E0E03E0724F09B
:100AFC009FD1E654F04038C02634E0E03E0724F0A5
:100B0C0097D1E154F04030C02134E0E03E071CF0B6
:100B1C008FD1FC9729C02C33E0E03E071CF088D124
:100B2C00F79722C02233E0E03E071CF081D1BD973D
:100B3C001BC02832E0E03E071CF07AD1B39714C0FA
:100B4C002E31E0E03E071CF073D179970DC02431B3
:100B5C00E0E03E071CF06CD13F9706C02A30E0E085
:100B6C003E0734F065D13797E0936A01F0936B013F
:100B7C00B6D12A9608952297ABD1009164011091B9
:100B8C006501209166013091670140916801509197
:100B9C0069011CD1EE83FF8379D081D00030E1E074
:100BAC001E0744F00030E1E01E0724F00F5F1040F8
:100BBC0087D0F8CF88D0A02F89D02030E1E03E0735
:100BCC0044F02030E1E03E0724F02F5F304078D035
:100BDC00F8CF79D0A22F53DBA42F51DBAE814FDBA2
:100BEC007ED128960895E150F0E0E854FE4F089528
:100BFC00ED91FD913196FE93EE930895B0E008953A
:100C0C00E0E0EEBD0895AB98A5E0F8DF14D1E6E086
:100C1C00EEBDA5E0F3DF0FD1F3CFF0918601E0E05C
:100C2C00DF01ECB5FDB5EA0FFB1F0895E0E0F0E045
:100C3C00FDBDECBDE0938601E0938701AAE0DEDF09
:100C4C00FAC0AB9AA5E0DADFF6D0E6E0EEBDA5E09F
:100C5C00D5DFF1D0D5CFE0918A01F0918B010895C9
:100C6C00E0918C01F0918D010895E0918E01F0914D
:100C7C008F010895F0E0ED93FC930895EA17FB07BC
:100C8C000895E0919401F09195010895A0916C0163
:100C9C00F6DAA0916E01F3DAA091A601F0CAE0E0B9
:100CAC00E093A801E093A9010895A0917C01B09173
:100CBC007D01A030E1E0BE070895EF5FF04008959C
:100CCC00A8EAB1E095CFA091A801D9CAD8DAE7CFAC
:100CDC00A0917E01B0917F01A030E1E0BE070895A4
:100CEC00A0918001B0918101A030E1E0BE07089590
:100CFC00A0918201B0918301A030E1E0BE0708957C
:100D0C00A0919201B0919301A030E1E0BE0708954B
:100D1C00B6DAA091B001B3CA07DEA0916C01AFDACC
:100D2C00A0916E01ACCAE093A401F093A501A0912F
:100D3C00A401B091A5010895A091A401B091A501C1
:100D4C000895FADFAB3FE0E0BE070895F5DFA93C5C
:100D5C00E0E0BE070895F0DFA739E0E0BE07089594
:100D6C00EBDFA536E0E0BE07089500E010E0089543
:100D7C000530E0E01E070895F801DE011496EE0F31
:100D8C00FF1FEA0FFB1F0895EE81FF81AC81BD812F
:100D9C00EA0FFB1FA885B985EA0FFB1FAA85BB8547
:100DAC00EA0FFB1FAC85BD85EA0FFB1F9F01D90124
:100DBC00E5E0F0E061D00895E0916801F0916901FF
:100DCC000895A091AA01B091AB010895E0916A0138
:100DDC00F0916B010895A091AC01B091AD01089513
:100DEC00A091AE01B091AF010895A0E007DFEFCC68
:100DFC00A1E004DFECCCA2E001DFE9CCA091B201D0
:100E0C00B091B3010895E091B401F091B50108954A
:100E1C00E091B601F091B7010895E093B001F09321
:100E2C00B1010895229754D0E0CFEE81FF8108954F
:100E3C00E885F9850895109639F080EA9FE00197CE
:100E4C00F1F7A8951197C9F70895F195E195F04040
:100E5C0008950024112490E1AA0FBB1F001C111C43
:100E6C000E1A1F0A18F40E0E1F1E01C0A1609A95CF
:100E7C0099F7FD01D001089504D0EBDF0EF4E5DF06
:100E8C000895E894F7FF02C0E0DF6894B7FF06C04E
:100E9C00A095B095119600F8039400FA089507D028
:100EAC001196EF93EF2F03D0EF9111970895E19BDB
:100EBC0002C0A895FCCF9FB7F894AEBBBFBBE09A1D
:100ECC008DB3E81719F0EDBBE29AE19A9FBF089534
:100EDC005A934A933A932A931A930A9308955D81ED
:100EEC004C813B812A8119810881089509911991BE
:100EFC000895AC0FBD1F05900D928A95E1F70895EA
:00000001FF
