:0E00000023C0FECFFDCFFCCFFBCFFACF4CC00C
:10000E004FC0F7CFF6CFF5CFF4CFF3CFF2CFF1CF7E
:10001E00F0CFEFCFEECFEDCF1027E80364000A004C
:10002E000100001000011000010002003C003E0023
:10003E000000060004003A000000F894EE27ECBB26
:10004E00F1E0FBBFEBBFE5BFF8E1F1BDE1BD8DE037
:10005E00A2E0BB27ED938A95E9F780E094E0A0E655
:10006E00ED930197E9F7E0E4F0E085919591009723
:10007E0061F0A591B59105901590BF01F001059025
:10008E000D920197E1F7FB01F0CFEFE5EDBFE4E054
:10009E00EEBFC0E6D1E016C0EA93E1E08E2E03C0BB
:1000AE00EA93E1E09E2EE9911895AA93E881E06625
:1000BE00E7B985E38A95F1F7369A349BFECF349AE9
:1000CE00E5B1ECC145D0E0E047D2969A9798A2E010
:1000DE00B0E075D0A8EC46D2EAD27894A42DD9D14E
:1000EE00A62DD7D1A5E040D2A0916A01D2D1A2E02F
:1000FE003BD2A0916401CDD1A1E036D2A091620194
:10010E0035D230D2CDD1A0917601C3D1A5E034D273
:10011E00A6E02AD2A0916C01BCD1A4E025D2A09178
:10012E00680124D221D2A091600128D2A1E01AD276
:10013E00B7D1A091780122D2A3E016D2A091660188
:10014E001DD2A7E011D2A0916E01A3D1C7CFFFCFD0
:10015E00E0E0E8BBE7BBE5BBE4BBE2BBE1BBE3BF72
:10016E00E2BFEFBDEBE0EEBDE0E0EDBDECBDE7BD07
:10017E00E6BDE9E0EBBDE4ECEABDE7E0E9BDE0EDAC
:10018E00E8BDE0E0E2BDE5BDE4BDE3BDE5BFE8E10D
:10019E00E9BFE0E0EBB9E8E0EAB9E6E8E0BDE0E0AF
:1001AE00E0BDE7E6E9B9E0E8E8B9E0E0E0BFE0E6A7
:1001BE00E7B9E5E8E6B9E0E0EDB9E6BF0895BA9330
:1001CE00AA93B39903C0E1E0F0E004C0B39B03C06F
:1001DE00E2E0F0E05F01E881F981D3D119F4E0E0CB
:1001EE00E0BD07C0E230A0E0FA0721F4E0E0E0BD98
:1001FE00E7E6E9B9F89478944AC1BA93AA93969B24
:10020E0002C0969801C0969A979B02C0979801C01B
:10021E00979AE0E0EEBD99248824E0E0F0E0FDBD81
:10022E00ECBDE8B3E070E8BBE7B3E070E7BBE5B365
:10023E00E070E5BBE4B3E070E4BBEBE0EEBDE8815B
:10024E00F9813097E9F4A19AA99A9FD1A998A1981A
:10025E00A0D1999B02C0A1D109F001C0FACFA0E0B4
:10026E009999A1E0A03011F498D109F001C0F7CF0F
:10027E0097D1999B02C091D109F001C0FACFE4C089
:10028E0080D1E9F4BD9AC59A80D1C598BD9881D127
:10029E00B59B02C082D109F001C0FACFA0E0B5999A
:1002AE00A1E0A03011F479D109F001C0F7CF78D1D7
:1002BE00B59B02C072D109F001C0FACFC5C0E230C1
:1002CE00A0E0FA07E9F4A39AAB9A5FD1AB98A39892
:1002DE0060D19B9B02C061D109F001C0FACFA0E0B2
:1002EE009B99A1E0A03011F458D109F001C0F7CFCD
:1002FE0057D19B9B02C051D109F001C0FACFA4C0C7
:10030E00E330A0E0FA07E9F4BC9AC49A3ED1C4984F
:10031E00BC983FD1B49B02C040D109F001C0FACFC6
:10032E00A0E0B499A1E0A03011F437D109F001C0DA
:10033E00F7CF36D1B49B02C030D109F001C0FACF4D
:10034E0083C0E430A0E0FA07E9F4A49AAC9A1DD178
:10035E00AC98A4981ED19C9B02C01FD109F001C07D
:10036E00FACFA0E09C99A1E0A03011F416D109F0CB
:10037E0001C0F7CF15D19C9B02C00FD109F001C06F
:10038E00FACF62C0E530A0E0FA07E9F4A59AAD9A7B
:10039E00FCD0AD98A598FDD09D9B02C0FED009F073
:1003AE0001C0FACFA0E09D99A1E0A03011F4F5D0E4
:1003BE0009F001C0F7CFF4D09D9B02C0EED009F03A
:1003CE0001C0FACF41C0E630A0E0FA07E9F4BB9ACB
:1003DE00C39ADBD0C398BB98DCD0B39B02C0DDD0F0
:1003EE0009F001C0FACFA0E0B399A1E0A03011F45A
:1003FE00D4D009F001C0F7CFD3D0B39B02C0CDD07B
:10040E0009F001C0FACF20C0E730A0E0FA07F1F4FE
:10041E00B89AC09ABAD0C098B898BBD0B09B02C058
:10042E00BCD009F001C0FACFA0E0B099A1E0A03095
:10043E0011F4B3D009F001C0F7CFB2D0B09B02C017
:10044E00ACD009F001C0FACFE0E0EEBDE881F98151
:10045E00A0E6B1E0A7D0FF93EF93ECB5FDB5A7D022
:10046E00A0E0B0E686E896E417D2A0E0B0E080E81F
:10047E0092E4A1D0E0E0F4E264E77BE45BD24ED1FB
:10048E00AF91BF919CD0EBE0EEBDE0E0EEBD2296C9
:10049E000895AA935D9BFECFE881ECB9219608954D
:1004AE00BA93AA93AFD200E010E0CC24DD24E0E0B2
:1004BE00E0937201E0937301E0937401E093750190
:1004CE00E0938801E0938901EAE8F1E07BD0ECE863
:1004DE00F1E078D0EEE8F1E075D0E0E9F1E072D02D
:1004EE00EA81FB813097D1F400E010E00530E0E0C6
:1004FE001E0774F4A2E06BD0FF93EF9380D08CD0E4
:10050E00AF91BF919DD008F0A9D00F5F1F4FEECFD6
:10051E00AFD0E0937601F09377011BC032D0C9F4CF
:10052E0000E010E00530E0E01E0774F4A7E04FD0C5
:10053E00FF93EF9364D070D0AF91BF9181D008F04C
:10054E008DD00F5F1F4FEECF93D0E0937801F093D5
:10055E0079015BD224960895EEBDE0E0F0E0FDBD9A
:10056E00ECBD0895B0E00895FDDF47CE92DFA3E025
:10057E00F9DF9DD0A0E00895F5DF99C08ADFA3E0F2
:10058E00FBCFE130A0E0FA0708958BE18A95F1F7F1
:10059E00089585E18A95F1F70895E0E0E91508954B
:1005AE00EBE0DACFEE0FFF1FEA0FFB1F0895662771
:1005BE007727EDD0089570D1DF01CB010895ED932B
:1005CE00FC930895A0E0B0E0A083B18308956DDDA3
:1005DE00CE2EDD24F601EBDFDF01CB01E0E0F0E013
:1005EE006CE472E4A7D1E0937201F093730160930F
:1005FE00740170937501F801A8E8B1E0D3CFE091D2
:10060E007201F09173016091740170917501ABE00C
:10061E00B4E288EA9DE3CFCFE7E2F0EA69E87BE354
:10062E00E4D1E8D0A0E0B0E080E89FE383D1DF0121
:10063E00CB01EDE3FAE067ED7EE3D7D1DBD0089591
:10064E006DD0BDDFF801A8E8B1E0EE0FFF1FAE0FD1
:10065E00BF1FC7D1E135A0E0FA070895F801A8E859
:10066E00B1E0EE0FFF1FAE0FBF1FE1E5F0E0A7CF29
:10067E00E0918A01F0918B01A0918801B0918901DE
:10068E00AE0FBF1FE0918C01F0918D01AE0FBF1F19
:10069E00E0918E01F0918F01AE0FBF1FE09190019E
:1006AE00F0919101AE0FBF1FFD0191D108951096EB
:1006BE0039F080EA9FE00197F1F7A8951197C9F7F5
:1006CE000895552342F4503811F4E0FF04C03196DA
:1006DE00691F791F6BF050E8572711F45F93CAC05A
:1006EE005F3F31F0660F000C57956795752F089593
:1006FE005F9300200AF0CAC0C3C050E8192E15221D
:10070E00880F991F9527550F879550E8072E0522BC
:10071E00660F771F7527550F67950895689401C06A
:10072E00E8945F93F2DF703818F07F3F08F4A2C0B0
:10073E0056E1571BAAF4519558300EF4593030F04B
:10074E00EFEFFFEF6FEF7FE777F91AC077275523AB
:10075E00B9F0EE0FFF1F661F771F5A95D1F710C025
:10076E007727583028F0EF2FF62F672F5850F9CFF4
:10077E00552331F076956795F795E7955A95D1F70C
:10078E0000200AF41CD15F910895689401C0E8948A
:10079E00309760407040B1F0002426F0772312F4B9
:1007AE0000940DD1172E7EE1112032F07A95EE0FC6
:1007BE00FF1F661F111CF9CFEF2FF62F612D5F93D0
:1007CE008ADF5F9108954F93AF01FD01DA01AB010E
:1007DE00BC01CA01402D012C142E4F910895EA0F31
:1007EE00FB1F681F0895E095F0956095EF5FFF4F32
:1007FE006F4F08955F9381DF903849F150E81526C9
:10080E00703821F1572F591B2BF112F4DCDFFACF80
:10081E00583118F0AA27BB278827583028F0AB2F5D
:10082E00B82F88275850F9CF552329F08695B795BC
:10083E00A7955A95D9F7502D512572F0D0DF38F47F
:10084E006795F795E795739513F420C0BCDF43DFEA
:10085E005F910895D8F7FBCFEA1BFB0B680B51F0A5
:10086E0010F40094C0DF662392F3EE0FFF1F661F95
:10087E007A95CBF7EE27FF27662777275F910895A6
:10088E00EFEFFFEF6FE77FEF5F910895EFEFFFEF71
:10089E006FE77FE75F9108955F932FDF703851F315
:1008AE00903841F301240894791F23F41CF300209F
:1008BE003AF3ECCF0F921F932F933F934F93112741
:1008CE0022279927689FA0018F9F302D410D591F18
:1008DE006B9F300D411D591F8E9F27D0BF9F25D076
:1008EE006A9F23D0BE9F1DD0AF9F1BD0AE9F110D10
:1008FE00291F391F491F591FE32FF42F652F522F20
:10090E004F913F912F911F910F9066232AF0550F13
:10091E00EE1FFF1F661F02C073954BF2D2DE5F9172
:10092E000895100D211D391F02C0200D311D491FC4
:10093E00591F08955F93E1DE703821F411200AF4F7
:10094E009FCFA4CF903809F495CF01240894970B2C
:10095E001BF4D4F30020F3CF792F1F932F933F93E3
:10096E004F9311241127222733274427552790E22E
:10097E00AE17BF078607410730F0AE1BBF0B860BC5
:10098E00410B089401C08894551F221F331F111C60
:10099E00AA1FBB1F881F441F9A9551F7F901612D9D
:1009AE004F913F912F911F91662332F0550FEE1FFD
:1009BE00FF1F661F7A9543F284DE5F910895F095CE
:1009CE0060957095E195FF4F6F4F7F4F0895F695A7
:1009DE00E795F695E79508956F2F660F660B762FC0
:1009EE000895ED91FC9111970895182E862F612D83
:1009FE00192E972F712D1B2EBF2FF12D1A2EAE2FC4
:100A0E00E12D08951A930A93089519810881089586
:00000001FF
