:020000040800F2
:10000000D84D002069600008D5600008D560000860
:10001000D5600008D5600008D56000080000000029
:10002000000000000000000000000000D560000893
:10003000D560000800000000D5600008D12F02083C
:10004000D5600008D5600008D5600008D5600008BC
:10005000D5600008D5600008D5600008D5600008AC
:10006000D5600008D5600008D5600008D56000089C
:10007000D5600008D5600008D5600008D56000088C
:10008000D5600008D5600008D5600008D56000087C
:10009000D5600008D5600008D5600008D56000086C
:1000A000D5600008D5600008D5600008D56000085C
:1000B000798D000845290208D5600008D560000840
:1000C000D5600008D5600008D5600008D56000083C
:1000D000D56000086D1000086D0B0008616A00080B
:1000E000D5600008D5600008D5600008D56000081C
:1000F000D5600008D5600008D5600008D56000080C
:10010000D5600008D5600008715F0008D560000860
:100110003D120008E1130008ED0B0008D56000084F
:10012000D5600008D5600008D5600008D5600008DB
:10013000D5600008D5600008D5600008D5600008CB
:10014000D5600008D5600008D5600008D5600008BB
:10015000D5600008D5600008D5600008C516000805
:10016000D5600008D5600008D5600008D56000089B
:10017000D5600008D5600008D5600008D56000088B
:10018000D5600008D560000880B582B000AF786007
:100190004FF40030012106F083FB0120012106F01D
:1001A00061FB284B0C221A60264B02221A71254B48
:1001B00002225A71234B00229A71224B0122DA71DA
:1001C0002148204922F054FC1F480221072222F036
:1001D00013FD1D480321072222F00EFD1B4B7A68F8
:1001E0001A601A4B00229A80184B4FF40052DA80A2
:1001F000164B00221A81154B00229A81134B0C22B8
:100200005A811348114901F049FC114840F2255127
:10021000012201F02FFD0F4B26221A700D4B0022F8
:100220005A700C4B01229A700A4B0122DA7009486D
:1002300035F0AEFB0648012101F0EAFC0837BD4667
:1002400080BD00BF84190020000002408C190020EE
:1002500000440040A019002080B584B000AF0346E0
:10026000FB80FB88FB81064801F0B0FB0548FFF7E7
:100270008BFFFB891BB218461037BD4680BD00BFFF
:100280000014014040420F0080B584B000AF786098
:10029000396040F6B833FB607868802101F04EFD8C
:1002A00040F6B833FB600BE0FB68002B03D0FB6823
:1002B000013BFB6004E04FF0FF30FFF7CDFF0CE0A7
:1002C0007868802101F01EFD0346002BECD03B68CE
:1002D0009BB27868194601F0BBFC1037BD4680BD63
:1002E00080B586B000AFB9607A603B600346FB73AF
:1002F000BB689B027B617B69364A82FB0312521109
:10030000DB17D31A7B617B69002B02D07B69013B31
:100310007B617B691B12FB747B69BB747B681B0A66
:100320007B747B683B74FA7BBB7C1344DAB2FB7C46
:100330001344DAB23B7C1344DAB27B7C1344DBB265
:100340002833DBB2DB43DAB2234B1A702348022195
:1003500022F036FC2248FF21FFF796FF2048FF21BC
:10036000FFF792FFFB7B1E481946FFF78DFF1C48E5
:100370000721FFF789FF1A480321FFF785FF184877
:100380001E21FFF781FFBB7C15481946FFF77CFF54
:10039000FB7C13481946FFF777FF3B7C1048194652
:1003A000FFF772FF7B7C0E481946FFF76DFF0A4B83
:1003B0001B780B481946FFF767FF386822F020FECC
:1003C0000648022122F00AFC4FF0FF331846183786
:1003D000BD4680BDB5814E1B1115002000080240AE
:1003E0000044004080B584B000AF78600023FB7308
:1003F0000023BB7300237B7300233B730423FB7236
:100400001223BB72FB7A0133DBB2BA7A02FB03F32D
:10041000DBB204337B727B681B0A7B737B683B73A4
:100420007A7AFB7A1344DBB2613BDAB29F4B1A70E3
:100430009F4BFF221A609E4BFF225A609C4BFE226C
:100440009A607A7A9A4BDA60994B83221A61984BB8
:100450001E225A61FA7A964B9A61964B1B681B12C0
:10046000FB73944B1B68BB7301233B72BA7BFB7B12
:100470001344DAB23B7B1344DAB27B7B1344DAB227
:100480003B7A1344DAB2894B1B781344DAB2874BB8
:100490001A703A7A864BDA61BA7B854B1A62FA7B1C
:1004A000834B5A623A7B824B9A627A7B804BDA6248
:1004B000804B5B681B12FB737E4B5B68BB73022334
:1004C0003B72BA7BFB7B1344DAB23B7B1344DAB258
:1004D0007B7B1344DAB23B7A1344DAB2734B1B785A
:1004E0001344DAB2714B1A703A7A714B1A63BA7BC1
:1004F0006F4B5A63FA7B6E4B9A633A7B6C4BDA63B1
:100500007A7B6B4B1A646B4B9B681B12FB73694BBA
:100510009B68BB7303233B72BA7BFB7B1344DAB249
:100520003B7B1344DAB27B7B1344DAB23B7A13444D
:10053000DAB25E4B1B781344DAB25C4B1A703A7A2B
:100540005B4B5A64BA7B5A4B9A64FA7B584BDA6419
:100550003A7B574B1A657A7B554B5A65554BDB688E
:100560001B12FB73534BDB68BB7304233B72BA7BD8
:10057000FB7B1344DAB23B7B1344DAB27B7B13443C
:10058000DAB23B7A1344DAB2484B1B781344DAB23E
:10059000464B1A703A7A464B9A65BA7B444BDA65F9
:1005A000FA7B434B1A663A7B414B5A667A7B404B47
:1005B0009A66404B1B691B12FB733E4B1B69BB7356
:1005C00005233B72BA7BFB7B1344DAB23B7B1344BB
:1005D000DAB27B7B1344DAB23B7A1344DAB2334BA0
:1005E0001B781344DAB2314B1A703A7A304BDA6620
:1005F000BA7B2F4B1A67FA7B2D4B5A673A7B2C4BF1
:100600009A677A7B2A4BDA672A4B5B691B12FB736A
:10061000284B5B69BB7306233B72BA7BFB7B13449D
:10062000DAB23B7B1344DAB27B7B1344DAB23B7A17
:100630001344DAB21D4B1B781344DAB21B4B1A7009
:100640003A7A1B4BC3F88020BA7B194BC3F884203D
:10065000FA7B174BC3F888203A7B154BC3F88C20E4
:100660007A7B134BC3F89020124B9B691B12FB73D0
:10067000104B9B69BB7307233B72BA7BFB7B134414
:10068000DAB23B7B1344DAB27B7B1344DAB23B7AB7
:100690001344DAB2054B1B781344DAB2034B1A70D9
:1006A0003A7A034BC3F89420BA7B05E01115002079
:1006B000641500203C190020AE4BC3F89820FA7B4B
:1006C000AC4BC3F89C203A7BAA4BC3F8A0207A7BA2
:1006D000A84BC3F8A420A84BDB691B12FB73A64BE5
:1006E000DB69BB7308233B72BA7BFB7B1344DAB232
:1006F0003B7B1344DAB27B7B1344DAB23B7A13447C
:10070000DAB29E4B1B781344DAB29C4B1A703A7AD9
:10071000984BC3F8A820BA7B964BC3F8AC20FA7B61
:10072000944BC3F8B0203A7B924BC3F8B4207A7B49
:10073000904BC3F8B820904B1B6A1B12FB738E4B77
:100740001B6ABB7309233B72BA7BFB7B1344DAB28F
:100750003B7B1344DAB27B7B1344DAB23B7A13441B
:10076000DAB2864B1B781344DAB2844B1A703A7AA9
:10077000804BC3F8BC20BA7B7E4BC3F8C020FA7B09
:100780007C4BC3F8C4203A7B7A4BC3F8C8207A7BF1
:10079000784BC3F8CC20784B5B6A1B12FB73764B0B
:1007A0005B6ABB730A233B72BA7BFB7B1344DAB2EE
:1007B0003B7B1344DAB27B7B1344DAB23B7A1344BB
:1007C000DAB26E4B1B781344DAB26C4B1A703A7A79
:1007D000684BC3F8D020BA7B664BC3F8D420FA7BB1
:1007E000644BC3F8D8203A7B624BC3F8DC207A7B99
:1007F000604BC3F8E020604B9B6A1B12FB735E4B9F
:100800009B6ABB730B233B72BA7BFB7B1344DAB24C
:100810003B7B1344DAB27B7B1344DAB23B7A13445A
:10082000DAB2564B1B781344DAB2544B1A703A7A48
:10083000504BC3F8E420BA7B4E4BC3F8E820FA7B58
:100840004C4BC3F8EC203A7B4A4BC3F8F0207A7B40
:10085000484BC3F8F420484BDB6A1B12FB73464B32
:10086000DB6ABB730C233B72BA7BFB7B1344DAB2AB
:100870003B7B1344DAB27B7B1344DAB23B7A1344FA
:10088000DAB23E4B1B781344DAB23C4B1A703A7A18
:10089000384BC3F8F820BA7B364BC3F8FC20FA7B00
:1008A000344BC3F800213A7B324BC3F804217A7BE6
:1008B000304BC3F80821304B1B6B1B12FB732E4BC4
:1008C0001B6BBB730D233B72BA7BFB7B1344DAB209
:1008D0003B7B1344DAB27B7B1344DAB23B7A13449A
:1008E000DAB2264B1B781344DAB2244B1A703A7AE8
:1008F000204BC3F80C21BA7B1E4BC3F81021FA7BA6
:100900001C4BC3F814213A7B1A4BC3F818217A7B8D
:10091000184BC3F81C21184B5B6B1B12FB73164B57
:100920005B6BBB730E233B72BA7BFB7B1344DAB267
:100930003B7B1344DAB27B7B1344DAB23B7A134439
:10094000DAB20E4B1B781344DAB20C4B1A703A7AB7
:10095000084BC3F82021BA7B064BC3F82421FA7B4D
:10096000044BC3F828213A7B024BC3F82C217A7B35
:1009700006E000BF641500203C190020111500207E
:100980006A4BC3F830216A4B9B6B1B12FB73684B9D
:100990009B6BBB730F233B72BA7BFB7B1344DAB2B6
:1009A0003B7B1344DAB27B7B1344DAB23B7A1344C9
:1009B000DAB2604B1B781344DAB25E4B1A703A7AA3
:1009C0005A4BC3F83421BA7B584BC3F83821FA7B11
:1009D000564BC3F83C213A7B544BC3F840217A7BF9
:1009E000524BC3F84421524BDB6B1B12FB73504B31
:1009F000DB6BBB7310233B72BA7BFB7B1344DAB215
:100A00003B7B1344DAB27B7B1344DAB23B7A134468
:100A1000DAB2484B1B781344DAB2464B1A703A7A72
:100A2000424BC3F84821BA7B404BC3F84C21FA7BB8
:100A30003E4BC3F850213A7B3C4BC3F854217A7BA0
:100A40003A4BC3F858213A4B1B6C1B12FB73384BC3
:100A50001B6CBB7311233B72BA7BFB7B1344DAB272
:100A60003B7B1344DAB27B7B1344DAB23B7A134408
:100A7000DAB2304B1B781344DAB22E4B1A703A7A42
:100A80002A4BC3F85C21BA7B284BC3F86021FA7B60
:100A9000264BC3F864213A7B244BC3F868217A7B48
:100AA000224BC3F86C21224B5B6C1B12FB73204B57
:100AB0005B6CBB7312233B72BA7BFB7B1344DAB2D1
:100AC0003B7B1344DAB27B7B1344DAB23B7A1344A8
:100AD000DAB2184B1B781344DAB2164B1A703A7A12
:100AE000124BC3F87021BA7B104BC3F87421FA7B08
:100AF0000E4BC3F878213A7B0C4BC3F87C217A7BF0
:100B00000A4BC3F880210B4B1B78DB43DAB2094B4D
:100B10001A70084B1B781A46044BC3F884216120D5
:100B200000F00AF81037BD4680BD00BF64150020F4
:100B30003C1900201115002080B582B000AF03469B
:100B4000FB71084B1B68002B08D1FA79054B1A6022
:100B5000054840F22771012201F08CF80837BD46A4
:100B600080BD00BF541500200044004080B500AF98
:100B70001948022122F024F8184840F2277101F0A8
:100B8000EDF80346002B22D0154B1A68154B53F88D
:100B900022309BB21148194601F05AF8104B1B68DD
:100BA0005A1C0F4B1A600E4B1B681A460E4B1B68E3
:100BB00001339A420BD10C4B00221A60084B0022E1
:100BC0001A60064840F22771002201F053F80248EB
:100BD000022122F003F880BD0008024000440040DA
:100BE00084130020641500205415002080B500AF48
:100BF000794B1B68002B40F0E48000F0E5F9774B5F
:100C00001B683C339B02764A82FB03125211DB17AE
:100C1000D21A744B1A60714B5B6896339B02704A10
:100C200082FB03125211DB17D21A6E4B5A606B4BC8
:100C30009B6896339B026A4A82FB03125211DB17B0
:100C4000D21A684B9A60654B1B6BC3F1F0039B0291
:100C5000634A82FB03125211DB17D21A614B1A63EB
:100C60005E4B5B6BC3F196039B025D4A82FB0312F2
:100C70005211DB17D21A5B4B5A63584B9B6BC3F173
:100C800096039B02564A82FB03125211DB17D21ABB
:100C9000544B9A63514B9B693C339B02504A82FBF5
:100CA00003125211DB17D21A4E4B9A614B4BDB6980
:100CB00096339B024A4A82FB03125211DB17D21A67
:100CC000484BDA61454B1B6A96339B02444A82FBD0
:100CD00003125211DB17D21A424B1A623F4B5B6A66
:100CE000C3F1F0039B023E4A82FB03125211DB1751
:100CF000D21A3C4B5A62394B9B6AC3F196039B0252
:100D0000374A82FB03125211DB17D21A354B9A6213
:100D1000324BDB6AC3F196039B02314A82FB03121A
:100D20005211DB17D21A2F4BDA622C4BDB683C33A3
:100D30009B022B4A82FB03125211DB17D21A294B5A
:100D4000DA60264B1B6996339B02254A82FB03120D
:100D50005211DB17D21A234B1A61204B5B69963371
:100D60009B021F4A82FB03125211DB17D21A1D4B42
:100D70005A611A4BDB6BC3F1F0039B02184A82FBEA
:100D800003125211DB17D21A164BDA63134B1B6C8A
:100D9000C3F196039B02124A82FB03125211DB1726
:100DA000D21A104B1A640D4B5B6CC3F196039B0275
:100DB0000B4A82FB03125211DB17D21A094B5A64F9
:100DC00001E000F013F80020FFF70CFB06480121BA
:100DD00036F076FB80BD00BFE810002064170020CD
:100DE000B5814E1B3C1900200010004080B400AFBC
:100DF000724B1B683C339B02714A82FB03125211F7
:100E0000DB17D21A6F4B1A606C4B5B6896339B02F0
:100E10006B4A82FB03125211DB17D21A694B5A60DC
:100E2000664B9B6896339B02654A82FB0312521104
:100E3000DB17D21A634B9A60604B1B6BC3F1F00354
:100E40009B025F4A82FB03125211DB17D21A5D4BE1
:100E50001A635A4B5B6BC3F196039B02584A82FBA1
:100E600003125211DB17D21A564B5A63534B9B6B2A
:100E7000C3F196039B02524A82FB03125211DB1705
:100E8000D21A504B9A634D4B9B693C339B024C4AA0
:100E900082FB03125211DB17D21A4A4B9A61474B5D
:100EA000DB6996339B02464A82FB03125211DB1721
:100EB000D21A444BDA61414B1B6A96339B02404A7B
:100EC00082FB03125211DB17D21A3E4B1A623B4BC4
:100ED0005B6AC3F1F0039B02394A82FB0312521191
:100EE000DB17D21A374B5A62344B9B6AC3F1960315
:100EF0009B02334A82FB03125211DB17D21A314B89
:100F00009A622E4BDB6AC3F196039B022C4A82FB4A
:100F100003125211DB17D21A2A4BDA62274BDB6815
:100F20003C339B02264A82FB03125211DB17D21A72
:100F3000244BDA60214B1B6996339B02204A82FBCB
:100F400003125211DB17D21A1E4B1A611B4B5B693D
:100F500096339B021A4A82FB03125211DB17D21AF4
:100F6000184B5A61154BDB6BC3F1F0039B02144A1B
:100F700082FB03125211DB17D21A124BDA630F4BAA
:100F80001B6CC3F196039B020D4A82FB03125211A4
:100F9000DB17D21A0B4B1A64084B5B6CC3F1960338
:100FA0009B02074A82FB03125211DB17D21A054B30
:100FB0005A64BD465DF8047B704700BF641700208B
:100FC000B5814E1B3C19002080B400AF254B5A6AF6
:100FD000254B1A60234B9A6A234B5A60214BDA6ADD
:100FE000214B9A601F4B1A6B1F4B1A631D4B5A6B98
:100FF0001D4B5A631B4B9A6B1B4B9A63194BDA6B55
:10100000194B9A61174B1A6C174BDA61154B5A6CD6
:10101000154B1A62134B1A68134B5A62114B5A68DC
:10102000114B9A620F4B9A680F4BDA620D4BDA68DC
:101030000D4BDA600B4B1A690B4B1A61094B5A695D
:10104000094B5A61074B9A69074BDA63054BDA691A
:10105000054B1A64034B1A6A034B5A64BD465DF88C
:10106000047B70477C0000206417002080B582B0AC
:1010700000AF384840F2255100F070FE0346002BC7
:1010800064D0344B9B889BB2FB71334B1B68013B94
:10109000042B48D801A252F823F000BFB110000879
:1010A000C9100008E1100008F9100008111100082B
:1010B000284B9B889BB2DAB2284B1A70264B1B68D0
:1010C0005A1C254B1A602FE0224B9B889BB2DAB248
:1010D000224B5A70204B1B685A1C1F4B1A6023E08E
:1010E0001C4B9B889BB2DAB21C4B9A701A4B1B6844
:1010F0005A1C194B1A6017E0164B9B889BB2DAB248
:10110000164BDA70144B1B685A1C134B1A600BE019
:10111000104B9B889BB2DAB2104B1A710E4B40F207
:101120002B321A6000E000BFFA790D4B1B689A421F
:1011300009D10C4B1B781A460B4B1B689A4202D103
:10114000054B01221A60074BFA791A700837BD4621
:1011500080BD00BF00100140E41000205C1D002095
:101160006C000020881300206800002080B582B049
:1011700000AF78604FF40020012105F091FB0420BE
:10118000012105F06FFB284B4FF440621A60264B9B
:1011900002221A71244B02225A71234B00229A71A7
:1011A000214B0122DA7121481F4921F061FC1F48BF
:1011B0000A21082221F020FD1C480B21082221F0E1
:1011C0001BFD1B4B7A681A60194B00229A80184B42
:1011D0000022DA80164B00221A81154B00229A81D8
:1011E000134B0C225A811348114900F057FC114847
:1011F00040F22551012200F03DFD0F4B34221A70C0
:101200000D4B00225A700C4B01229A700A4B01229E
:10121000DA70094834F0BCFB0648012100F0F8FC04
:101220000837BD4680BD00BF841900200008024079
:101230008C190020004C0040A019002080B582B01D
:1012400000AF204840F2255100F088FD0346002BF6
:1012500035D01C4B9B889BB2FB711B4B1B68012B31
:1012600002D0022B0CD018E0164B9B889BB21A467A
:10127000164B1A60144B1B685A1C134B1A600CE077
:10128000104B9B889BB21A46114B1A600E4B1B6881
:1012900003F10D020C4B1A6000BFFA790D4B1B686D
:1012A0009A4209D10C4B1B781A460C4B1B689A4288
:1012B00002D1054B01221A60074BFA791A700837E0
:1012C000BD4680BD004C0040E0100020F811002019
:1012D000001200206C00002089130020680000200C
:1012E00080B582B000AF78604FF48010012105F026
:1012F000D7FA0420012105F0B5FA334B4FF48052A0
:101300001A60314B02221A712F4B02225A712E4B56
:1013100000229A712C4B0122DA712C482A4921F0C3
:10132000A7FB0820012105F09DFA274B04221A6033
:10133000254B02221A71244B02225A71224B0022A1
:101340009A71214B0122DA7121481F4921F090FB4B
:101350001E480C21082221F04FFC1D4802210822C2
:1013600021F04AFC1B4B7A681A601A4B00229A80C3
:10137000184B0022DA80174B00221A81154B0022ED
:101380009A81144B0C225A811348124900F086FBB3
:10139000114840F22551012200F06CFC0F4B352220
:1013A0001A700E4B00225A700C4B01229A700B4B94
:1013B0000122DA70094834F0EBFA0748012100F005
:1013C00027FC0837BD4680BD841900200008024074
:1013D000000C02408C19002000500040A019002091
:1013E00080B582B000AF784840F2255100F0B6FCDD
:1013F0000346002B00F0E480734B9B889BB2FB718B
:10140000724B1B68013B0A2B00F2B28001A252F81A
:1014100023F000BF4114000859140008711400089B
:1014200089140008C7140008DF140008F714000826
:101430000F150008271500083F150008571500086C
:10144000614B9B889BB21A46614B1A605F4B1B68CD
:101450005A1C5E4B1A608BE05B4B9B889BB21A4612
:101460005B4B5A60594B1B685A1C584B1A607FE003
:10147000554B9B889BB21A46554B9A60534B1B6841
:101480005A1C524B1A6073E0514B1A68514B1B683F
:101490009A420BD14C4B9B889BB21A464C4BDA605C
:1014A0004A4B1B685A1C494B1A6061E0464B9B88AB
:1014B0009BB21A46464BDA60444B1B6803F13F026D
:1014C000424B1A6054E0404B9B889BB21A46404BFB
:1014D0001A613E4B1B685A1C3C4B1A6048E03A4B61
:1014E0009B889BB21A463A4B5A61384B1B685A1C70
:1014F000364B1A603CE0344B9B889BB21A46344B07
:101500009A61324B1B685A1C304B1A6030E02E4BEC
:101510009B889BB21A462E4BDA612C4B1B685A1CD7
:101520002A4B1A6024E0284B9B889BB21A46284B12
:101530001A62264B1B685A1C244B1A6018E0224B77
:101540009B889BB21A46224B5A62204B1B685A1C3E
:101550001E4B1A600CE01C4B9B889BB21A461C4B1E
:101560009A621A4B1B6803F13F02184B1A6000BFC6
:10157000FA79194B1B689A4209D1184B1B781A4605
:10158000174B1B689A4202D1104B01221A60134B71
:10159000FA791A700E4B5A68124B1B689A420FD197
:1015A0000B4B1A68104B1B689A4209D00F4B1A68F4
:1015B0000F4B1B689A4203D10A4B1A680D4B1A60F5
:1015C0000837BD4680BD00BF00500040101200200B
:1015D00028120020780000206C0000208A130020D0
:1015E000680000204C06002018000020881200200F
:1015F000540600207C12002080B582B000AF7860D5
:101600002020012105F06AF90420012105F02AF9C2
:10161000274BC0221A60264B02221A71244B022249
:101620005A71234B00229A71214B0122DA71214811
:101630001F4921F01DFA1F480621082221F0DCFA7B
:101640001C480721082221F0D7FA1B4B7A681A6040
:10165000194B00229A80184B0022DA80164B002288
:101660001A81154B00229A81134B0C225A81134880
:10167000114900F013FA114840F22551012200F0FF
:10168000F9FA0F4B47221A700D4B00225A700C4B7F
:1016900001229A700A4B0122DA70094834F078F975
:1016A0000648012100F0B4FA0837BD4680BD00BFEE
:1016B00084190020000802408C1900200014014009
:1016C000A019002080B500AF024840F2255100F07B
:1016D00045FB80BD001401400EB480B482B000AF61
:1016E00078600837BD465DF8047B03B0704700BFE3
:1016F00080B582B000AF7860396000BF7868802123
:1017000000F000FB0346002BF8D03B689BB27868E2
:10171000194600F09DFA0837BD4680BD80B500AF80
:1017200021F07EFB35F06EFF9A4B1B68002B04D135
:10173000994B1B68002B40F0CB8098480121012277
:1017400035F09AFE934B1B68002B3BD134F00EF919
:101750000120002134F0DCF8914B1A68914B1B6892
:101760009148924938F094FB8F4834F0BDF800203E
:10177000012134F0CDF8884B1B688B488C491A4600
:1017800038F086FB884834F0AFF80020022134F0AE
:10179000BFF8854B874A07CA83E80700824834F0C0
:1017A000A3F80020032134F0B3F8834B1B687E4874
:1017B00082491A4638F06CFB7B4834F095F8642077
:1017C00021F044FC744B1B68012B3FD134F0CEF860
:1017D0000120002134F09CF8714B1A68714B1B6892
:1017E0007148724938F054FB6F4834F07DF800209E
:1017F000012134F08DF86C4B714A07CA03C31A807B
:101800000233120C1A70684834F06EF8002002217E
:1018100034F07EF85F4B1B6863486A491A4638F01B
:1018200037FB614834F060F80020032134F070F891
:10183000614B1B685C4861491A4638F029FB5A48DD
:1018400034F052F8642021F001FC92E0012004F011
:10185000C5FA34F08BF80120002134F059F8504BD0
:101860001A68504B1B685048504938F011FB4E48DD
:1018700034F03AF80020012134F04AF8464B1B6856
:1018800049484B491A4638F003FB474834F02CF8D6
:101890000020022134F03CF83E4B1B684248494985
:1018A0001A4638F0F5FA404834F01EF800200321BB
:1018B00034F02EF8404B1B683B4840491A4638F03C
:1018C000E7FA394834F010F8642021F0BFFB50E00B
:1018D000304B1B68002B4CD134F048F8012000211C
:1018E00034F016F82E4B1A682E4B1B682E482F49E1
:1018F00038F0CEFA2C4833F0F7FF0020012134F005
:1019000007F8254B1B68284829491A4638F0C0FAC1
:10191000254833F0E9FF0020022133F0F9FF1D4B89
:101920001B68214827491A4638F0B2FA1E4833F09E
:10193000DBFF0020032133F0EBFF1F4B1B681A482D
:101940001E491A4638F0A4FA174833F0CDFF642038
:1019500021F07CFB1C484FF4804121F03FF90F48F7
:101960000121002235F088FD17484FF4804121F015
:1019700035F915484FF4804121F030F9074801212D
:10198000002235F079FD10484FF4804121F026F90E
:1019900080BD00BFDC110020701D0020000C004045
:1019A000F8110020001200209C14002048DF0308DA
:1019B00054DF030864DF0308701B002070DF030896
:1019C0007CDF030888DF0308000C024080B582B08A
:1019D00000AF78607A682B4B9A4208D11020012121
:1019E00004F0B8FF1020002104F0B4FF47E07A684B
:1019F000254B9A420AD14FF40030012104F08CFFAC
:101A00004FF40030002104F087FF38E07A681F4B64
:101A10009A420AD14FF48020012104F07DFF4FF457
:101A20008020002104F078FF29E07A68184B9A4260
:101A30000AD14FF40020012104F06EFF4FF4002082
:101A4000002104F069FF1AE07A68124B9A420AD129
:101A50004FF48010012104F05FFF4FF4801000214B
:101A600004F05AFF0BE07A680B4B9A4207D1202012
:101A7000012104F06FFF2020002104F06BFF0837E4
:101A8000BD4680BD001001400044004000480040B9
:101A9000004C0040005000400014014080B58AB066
:101AA00000AF7860396000237B6200233B62002333
:101AB000FB610023BB617B681B8A9BB27B627B6AF4
:101AC00023F440537B623B68DB887A6A13437B6272
:101AD0007B6A9AB27B681A827B689B899BB27B6225
:101AE0007B6A23F4B05323F00C037B623B689A8833
:101AF0003B681B8913439AB23B685B8913439BB2D3
:101B00007A6A13437B627B6A9AB27B689A817B68AC
:101B10009B8A9BB27B627B6A23F440737B623B6847
:101B20009B897A6A13437B627B6A9AB27B689A824A
:101B300007F10803184604F0EBFD7A68314B9A422E
:101B400003D07A68304B9A4202D17B693B6201E054
:101B50003B693B627B689B899BB29BB21BB2002BAB
:101B60000CDA3A6A13469B0013449A001A443B6805
:101B70001B685B00B2FBF3F3FB610BE03A6A1346B0
:101B80009B0013449A001A443B681B689B00B2FBFD
:101B9000F3F3FB61FA691D4BA3FB02135B091B0105
:101BA0007B627B6A1B09642202FB03F3FA69D31A86
:101BB000BB617B689B899BB29BB21BB2002B0DDA89
:101BC000BB69DB0003F13202104BA3FB02135B097C
:101BD00003F007037A6A13437B620CE0BB691B01C5
:101BE00003F13202094BA3FB02135B0903F00F035D
:101BF0007A6A13437B627B6A9AB27B681A812837C0
:101C0000BD4680BD00100140001401401F85EB510E
:101C100080B483B000AF78600B46FB70FB78002B7C
:101C200008D07B689B899BB243F400539AB27B68CF
:101C30009A8107E07B689B899BB223F400539AB298
:101C40007B689A810C37BD465DF8047B704700BF06
:101C500080B483B000AF78600B467B807B88C3F391
:101C600008039AB27B689A800C37BD465DF8047B06
:101C7000704700BF80B487B000AF786013460A4653
:101C80007A807B7000233B610023FB600023BB60F4
:101C900000237B617B687B617B88DBB25B09DBB205
:101CA0003B617B8803F01F03FB60FB68012202FAA3
:101CB00003F3BB603B69012B03D17B690C337B6170
:101CC00009E03B69022B03D17B6910337B6102E0A1
:101CD0007B6914337B617B78002B06D07B697A6942
:101CE0001168BA680A431A6006E07B697A6911686C
:101CF000BA68D2430A401A601C37BD465DF8047BBF
:101D0000704700BF80B485B000AF78600B467B8021
:101D10000023FB737B681B889AB27B8813409BB2BD
:101D2000002B02D00123FB7301E00023FB73FB7B3C
:101D300018461437BD465DF8047B704780B483B005
:101D400000AF78600B467B807B88DB439AB27B6870
:101D50001A800C37BD465DF8047B704780B487B0AD
:101D600000AF78600B467B800023FB6000237B6123
:101D70000023BB600023FB747B88DBB25B09DBB212
:101D8000BB607B8803F01F037B617B69012202FA41
:101D900003F37B61BB68012B06D17B689B899BB2F7
:101DA0007A6913407B610FE0BB68022B06D17B6828
:101DB0001B8A9BB27A6913407B6105E07B689B8A32
:101DC0009BB27A6913407B617B881B0A9BB2FB60E4
:101DD000FB68012202FA03F3FB607B681B889BB25D
:101DE000FA681340FB607B69002B05D0FB68002B71
:101DF00002D00123FB7401E00023FB74FB7C184636
:101E00001C37BD465DF8047B704700BF0000000032
:101E1000B0B584B000AFF860B9607A60D7ED017AF0
:101E2000FDEEE77A17EE902A064B1A60BB6806EEC5
:101E3000903AF8EEE67A044BC3ED007A034B0022A9
:101E40001A6023E13C1A00206C1B0020C8100020FF
:101E5000A74B1A68A64B1B68A6499B000B4493ED41
:101E6000007AFB6806EE903AF8EEE67A77EE677A4B
:101E7000FDEEE77A17EE901A9F4B43F822109F4B26
:101E80001B68184637F022FC04460D46984B1A682A
:101E9000994B53F82230184637F006FC02460B46A1
:101EA0001046194690A3D3E9002337F08DFD024672
:101EB0000B461046194635F05FFD02460B4620469C
:101EC000294637F057FC02460B461046194637F0B4
:101ED00013FF02468A4B1A60854B1B68894A9B0098
:101EE000134493ED007A864BD3ED007A77EE677A50
:101EF000834BC3ED007A814B1B68184637F0E6FB35
:101F000004460D467A4B1A687B4B53F8223018462C
:101F100037F0CAFB02460B461046194672A3D3E9B6
:101F2000002337F051FD02460B461046194635F0A6
:101F3000B1FD02460B462046294637F01BFC0246FF
:101F40000B461046194637F0D7FE02466E4B1A6014
:101F50006D4B93ED007A6A4BD3ED007AC7EE277A8A
:101F6000674BC3ED007A664B1B68184637F0AEFB33
:101F700002460B461046194635F056FB02460B4604
:101F80001046194637F0B8FE02465D4B1A60584BB2
:101F90001C685B4B1B68184637F098FB02460B46E3
:101FA0001046194650A3D3E9002337F0E3FB02465D
:101FB0000B461046194637F09FFE02465349A300D0
:101FC0000B441A604A4B1A684B4B53F822301846A0
:101FD00037F06AFB02460B461046194642A3D3E986
:101FE000002337F0F1FC02460B461046194635F047
:101FF00051FD02460B461046194637F07DFE02465B
:102000003F4B1A603D4B93ED007A3D4BD3ED007A88
:1020100067EE277A3A4BC3ED007A354B1B683B4A93
:102020009B0013441B68184637F050FB02460B46D2
:10203000104619462CA3D3E9002337F0C5FC02460D
:102040000B461046194635F025FD02460B46104654
:10205000194637F051FE02462B4B1A60284B93ED80
:10206000007A294BD3ED007AC7EE277A244BC3EDD3
:10207000007A1F4B1B68224A126825499B000B44BB
:102080001A601B4B1B685A1C194B1A60184B1B68B3
:10209000052B7FF7DDAE1E4B93ED007AF0EE007A54
:1020A00077EE277A1A4BC3ED007A194B93ED037A3A
:1020B000F0EE007A77EE277A154BC3ED037A144BD6
:1020C00093ED017AF0EE087A77EE677A104BC3ED64
:1020D000017A0F4B93ED047AF0EE087A77EE677A87
:1020E0000B4BC3ED047A15E085EB51B81EA54C40AF
:1020F000C8100020BCDE0308A01E00206C1B0020BE
:10210000801D0020A4DE0308BC1E0020D81D002076
:10211000B81C00200B4B93ED027AF1EE0C7A77EEAF
:10212000677A084BC3ED027A064B93ED057AF1EE20
:102130000C7A77EE677A034BC3ED057A1037BD460C
:10214000B0BD00BFB81C002080B584B000AFB9603E
:102150007A603B600346FB73A74BBA681A60A74BD3
:102160007A681A60A54B93ED007AF0EE0C7A77EE60
:10217000677AA24BC3ED007AA14BA24A1A60A24B28
:10218000A24A1A609D4B93ED007A9C4BD3ED007AE6
:1021900027EE277AD7ED006AD7ED007A66EEA77AA8
:1021A00037EE277A964BD3ED007A37EE677A964B67
:1021B000D3ED007AC7EE277A17EE900A37F086FA49
:1021C00002460B461046194635F0AEFC02460B4659
:1021D0001046194637F090FD0246874B9A60864BB1
:1021E0009B68184637F072FA02460B4610461946AD
:1021F00035F0C2FB02460B46104619464FF000026E
:10220000834B37F0B7FA02460B46104619464FF09B
:102210000002804B37F0FCF802460B461046194688
:1022200037F06AFD02467C4B1A60734B9B68184678
:1022300037F04CFA02460B461046194635F02AFC98
:1022400002460B46104619464FF00002704B37F01D
:1022500091FA02460B461046194637F04DFD0246EC
:102260006E4B1A606C4B93ED007AD7ED007A27EE37
:10227000277A624BD3ED006A684BD3ED007A66EEA5
:10228000A77A37EE677A5D4BD3ED006A624BD3EDE8
:10229000007A66EEA76A614B93ED006AD7ED007A8B
:1022A00066EE277A76EEA77AC7EE277A17EE900ABF
:1022B00037F00CFA02460B461046194635F0B4F9D1
:1022C00002460B461046194637F016FD02464A4BA9
:1022D0005A60494B9B68184637F0F8F902460B469E
:1022E0001046194642A3D3E9002337F043FA0246C9
:1022F0000B461046194637F0FFFC02463E4B9A60EB
:102300003D4B5B68184637F0E1F902460B46104634
:10231000194637A3D3E9002337F02CFA02460B46BF
:102320001046194637F0E8FC0246334B5A60FB7BF7
:10233000013B052B00F29A8001A252F823F000BF66
:10234000592300087F230008A5230008CB23000899
:102350002124000847240008274B1B680020194649
:1023600000F08AF8244B5B680120194600F084F8DD
:10237000214B9B680220194600F07EF876E01E4B48
:102380001B680920194600F077F81B4B5B680A2090
:10239000194600F071F8184B9B680B20194600F0A5
:1023A0006BF863E0144B1B680320194600F064F8D7
:1023B000114B5B680420194600F05EF80E4B9B68D9
:1023C0000520194600F058F850E00B4B1B680C2014
:1023D000194600F051F8084B5B680D20194600F0D3
:1023E0004BF8054B9B680E20194600F045F83DE080
:1023F00085EB51B81EA54C40B4190020D81B002015
:102400009C1C00200000B242AC1A00200000A04238
:102410000000204000001440481E0020A41A0020A4
:10242000144B1B680620194600F026F8114B5B6818
:102430000720194600F020F80E4B9B68082019462B
:1024400000F01AF812E00B4B1B680F20194600F041
:1024500013F8084B5B681020194600F00DF8054B87
:102460009B681120194600F007F800BF1037BD46E1
:1024700080BD00BFB419002080B483B000AF786085
:102480003960154A7B689B00134493ED007A134A28
:102490007B689B001344D3ED006AD7ED007A76EE9B
:1024A000A77A27EE277A0E4B7A6853F8223006EE89
:1024B000903AF8EEE67A77EE277AFDEEE77A17EEB5
:1024C000903A1946074B7A6843F822100C37BD46FC
:1024D0005DF8047B704700BFFCDD0308A00400200A
:1024E00044DE03085804002080B500AF002000211E
:1024F0002B4AFFF78DFC322020F0A8FD294B1B68EA
:1025000007EE103AF8EEC77A01202749274A17EE5E
:10251000903AFFF719FE234B1B6807EE103AF8EECE
:10252000C77A02202049214A17EE903AFFF70CFEA5
:102530001C4B1B6807EE103AF8EEC77A03201A49C5
:102540001A4A17EE903AFFF7FFFD164B1B6807EE8D
:10255000103AF8EEC77A04201349144A17EE903A5D
:10256000FFF7F2FD0F4B1B6807EE103AF8EEC77A43
:1025700005200D490D4A17EE903AFFF7E5FD094B8E
:102580001B6807EE103AF8EEC77A06200649074A9C
:1025900017EE903AFFF7D8FD642020F057FD80BD7C
:1025A000000010413C1A00200000B4420000E0404E
:1025B00080B584B000AF786039600B480B49FFF7F5
:1025C0008BF87B680A4A82FB03125210DB17D31A7E
:1025D000BB6000200521074AFFF71AFC322020F0DB
:1025E00035FD0123FB60E1E300100140D4DF030867
:1025F0006766666600001041B94B1B68B94819460A
:10260000FFF776F8B84B9A68B84B1B689A4203D12B
:10261000B64B1A68B64B1A60B14B1B68B1481946E5
:10262000FFF766F8B04B9A68B04B1B689A4203D12B
:10263000AE4B1A68AE4B1A60AE4B1B6806EE903A72
:10264000F8EEE67A0120AC49AC4A17EE903AFFF773
:102650007BFDAB4B93ED037ADFEDAA7A37EE277A59
:10266000A44B1B68033B06EE903AF8EEE67A022094
:1026700017EE101AA44A17EE903AFFF765FDA04B2B
:1026800093ED017ADFED9F7A37EE277A994B1B683D
:10269000033B06EE903AF8EEE67A032017EE101AA6
:1026A000994A17EE903AFFF74FFD924B1B6807EEE1
:1026B000103AF8EEC77A04208F49904A17EE903A04
:1026C000FFF742FD8B4B1B6806EE903AF8EEE67A78
:1026D00005208949894A17EE903AFFF735FD884B66
:1026E00093ED057ADFED877A37EE277A814B1B6809
:1026F000033B06EE903AF8EEE67A062017EE101A43
:10270000814A17EE903AFFF71FFD3B68184620F00C
:102710009DFC734B1B6873481946FEF7E9FF724B2B
:102720009A68724B1B689A4203D1704B1A68704BBF
:102730001A606B4B1B686B481946FEF7D9FF6A4B52
:102740009A686A4B1B689A4203D1684B1A68684BB7
:102750001A606B4B93ED007ADFED6A7A37EE277AD9
:10276000644B1B6806EE903AF8EEE67A012017EE0D
:10277000101A624A17EE903AFFF7E6FC604BD3ED71
:10278000037A9FED607A37EE677A5A4B1B68033BFA
:1027900006EE903AF8EEE67A022017EE101A5A4A40
:1027A00017EE903AFFF7D0FC554BD3ED017A9FED31
:1027B000557A37EE677A4F4B1B68033B06EE903A2B
:1027C000F8EEE67A032017EE101A4F4A17EE903A09
:1027D000FFF7BAFC4A4B93ED047ADFED4A7A37EE05
:1027E000277A444B1B6806EE903AF8EEE67A04200E
:1027F00017EE101A414A17EE903AFFF7A5FC404B2E
:1028000093ED027ADFED3F7A37EE277A394B1B687A
:1028100006EE903AF8EEE67A052017EE101A374ADF
:1028200017EE903AFFF790FC354BD3ED057A9FED0C
:10283000357A37EE677A2F4B1B68033B06EE903AEA
:10284000F8EEE67A062017EE101A2F4A17EE903AA5
:10285000FFF77AFC3B68184620F0F8FB204B1B681A
:1028600020481946FEF744FF1F4B9A681F4B1B6810
:102870009A4203D11D4B1A681D4B1A60184B1B68F6
:1028800018481946FEF734FF174B9A68174B1B6818
:102890009A4203D1154B1A68154B1A60184B93EDE9
:1028A000007ADFED187A37EE277A124B1B6806EEB6
:1028B000903AF8EEE67A012017EE101A0F4A17EE5A
:1028C000903AFFF741FC0E4BD3ED037A9FED0D7A62
:1028D00037EE677A074B1B6806EE903A16E000BFAA
:1028E000E805002000500040281200204C0600207F
:1028F0007C1200203C1A00200000B4420000E0409E
:10290000D81D00200000B44200002041F8EEE67A15
:10291000022017EE101AC24A17EE903AFFF714FC85
:10292000C04BD3ED017A9FEDC07A37EE677ABF4B8B
:102930001B6806EE903AF8EEE67A032017EE101ABE
:10294000B74A17EE903AFFF7FFFBB64B93ED047AC8
:10295000DFEDB57A37EE277AB44B1B6806EE903A76
:10296000F8EEE67A042017EE101AAD4A17EE903A08
:10297000FFF7EAFBAB4B93ED027ADFEDAB7A37EE74
:10298000277AAA4B1B6806EE903AF8EEE67A052005
:1029900017EE101AA24A17EE903AFFF7D5FBA14B9B
:1029A000D3ED057A9FEDA07A37EE677A9F4B1B68CF
:1029B00006EE903AF8EEE67A062017EE101A984ADC
:1029C00017EE903AFFF7C0FB3B68184620F03EFB3D
:1029D000974B1B6897481946FEF78AFE964B9A68F4
:1029E000964B1B689A4203D1944B1A68944B1A6019
:1029F0008F4B1B688F481946FEF77AFE8E4B9A68FC
:102A00008E4B1B689A4203D18C4B1A688C4B1A6010
:102A1000844B93ED007ADFED847A37EE277A834B8F
:102A20001B68033B06EE903AF8EEE67A012017EEBB
:102A3000101A844A17EE903AFFF786FB7B4B1B680F
:102A400007EE103AF8EEC77A02207F49744A17EE73
:102A5000903AFFF779FB754B1B6806EE903AF8EE5B
:102A6000E67A032078496E4A17EE903AFFF76CFB3E
:102A70006C4B93ED047ADFED6C7A37EE277A6B4B73
:102A80001B68033B06EE903AF8EEE67A042017EE58
:102A9000101A6C4A17EE903AFFF756FB614B93ED14
:102AA000027ADFED617A37EE277A604B1B68033BD1
:102AB00006EE903AF8EEE67A052017EE101A614A13
:102AC00017EE903AFFF740FB584B1B6807EE103AA1
:102AD000F8EEC77A06205C49514A17EE903AFFF7A4
:102AE00033FB3B68184620F0B1FA514B1B68514844
:102AF0001946FEF7FDFD504B9A68504B1B689A42F1
:102B000003D14E4B1A684E4B1A60494B1B6849481B
:102B10001946FEF7EDFD484B9A68484B1B689A42F0
:102B200003D1464B1A68464B1A603E4BD3ED007AF0
:102B30009FED3D7A37EE677A3C4B1B68033B06EE10
:102B4000903AF8EEE67A012017EE101A3D4A17EE99
:102B5000903AFFF7F9FA334B93ED037ADFED327ACF
:102B600037EE277A314B1B6806EE903AF8EEE67A9C
:102B7000022017EE101A2A4A17EE903AFFF7E4FAED
:102B8000284B93ED017ADFED287A37EE277A274B31
:102B90001B6806EE903AF8EEE67A032017EE101A5C
:102BA0001F4A17EE903AFFF7CFFA1E4BD3ED047A87
:102BB0009FED1D7A37EE677A1C4B1B68033B06EED0
:102BC000903AF8EEE67A042017EE101A1D4A17EE36
:102BD000903AFFF7B9FA134BD3ED027A9FED127AD0
:102BE00037EE677A114B1B68033B06EE903AF8EE1E
:102BF000E67A052017EE101A124A17EE903AFFF700
:102C0000A3FA084B93ED057ADFED077A37EE277AC2
:102C1000064B1B6806EE903AF8EEE67A062015E0C1
:102C20000000E040D81D00200000B4423C1A002003
:102C3000E805002000500040281200204C0600202B
:102C40007C120020000020410000B44217EE101A50
:102C50005A4A17EE903AFFF777FA3B68184620F089
:102C6000F5F9574B1B6857481946FEF741FD564B7F
:102C70009A68564B1B689A4203D1544B1A68544BBE
:102C80001A604F4B1B684F481946FEF731FD4E4BFB
:102C90009A684E4B1B689A4203D14C4B1A684C4BB6
:102CA0001A604C4BD3ED007A9FED4B7A37EE677A82
:102CB0004A4B1B6806EE903AF8EEE67A012017EED2
:102CC000101A3E4A17EE903AFFF73EFA414B93ED49
:102CD000037ADFED417A37EE277A404B1B6806EE28
:102CE000903AF8EEE67A022017EE101A334A17EE01
:102CF000903AFFF729FA374B93ED017ADFED367AF8
:102D000037EE277A354B1B6806EE903AF8EEE67AF6
:102D1000032017EE101A294A17EE903AFFF714FA1B
:102D20002C4BD3ED047A9FED2C7A37EE677A2B4B40
:102D30001B6806EE903AF8EEE67A042017EE101AB9
:102D40001E4A17EE903AFFF7FFF9224BD3ED027AB5
:102D50009FED217A37EE677A204B1B6806EE903A9A
:102D6000F8EEE67A052017EE101A144A17EE903A9C
:102D7000FFF7EAF9174B93ED057ADFED177A37EE97
:102D8000277A164B1B6806EE903AF8EEE67A062094
:102D900017EE101A094A17EE903AFFF7D5F93B687B
:102DA000184620F053F9FB680133FB60FA68BB68F2
:102DB0009A427FF721AC1037BD4680BD0000E0404D
:102DC000E805002000500040281200204C0600209A
:102DD0007C120020D81D00200000B4423C1A0020C4
:102DE00080B584B000AF786039600B480B49FEF7BE
:102DF00073FC7B680A4A82FB0312DB17D31ABB60A1
:102E000000200321074AFFF703F8322020F01EF9C3
:102E10000123FB6001E300BF00100140F0DF030865
:102E20005655555500001041D14B1B6806EE903A9F
:102E3000F8EEE67A0120CF49CF4A17EE903AFFF735
:102E400083F9CE4B93ED037ADFEDCD7A37EE277A17
:102E5000C74B1B68033B06EE903AF8EEE67A022079
:102E600017EE101AC74A17EE903AFFF76DF9C34BE9
:102E700093ED017ADFEDC27A37EE277ABC4B1B68FF
:102E8000033B06EE903AF8EEE67A032017EE101AAE
:102E9000BC4A17EE903AFFF757F9B54B1B6807EE9F
:102EA000103AF8EEC77A0420B249B34A17EE903AC6
:102EB000FFF74AF9AE4B1B6806EE903AF8EEE67A59
:102EC0000520AC49AC4A17EE903AFFF73DF9AB4B01
:102ED00093ED057ADFEDAA7A37EE277AA44B1B68CB
:102EE000033B06EE903AF8EEE67A062017EE101A4B
:102EF000A44A17EE903AFFF727F93B68184620F0EE
:102F0000A5F89E4B93ED007ADFED9D7A37EE277A98
:102F1000974B1B6806EE903AF8EEE67A012017EE22
:102F2000101A954A17EE903AFFF70EF9934BD3ED2E
:102F3000037A9FED937A37EE677A8D4B1B68033BDC
:102F400006EE903AF8EEE67A022017EE101A8D4A55
:102F500017EE903AFFF7F8F8884BD3ED017A9FED22
:102F6000887A37EE677A824B1B68033B06EE903A0D
:102F7000F8EEE67A032017EE101A824A17EE903A1E
:102F8000FFF7E2F87D4B93ED047ADFED7D7A37EEC3
:102F9000277A774B1B6806EE903AF8EEE67A042023
:102FA00017EE101A744A17EE903AFFF7CDF8734BEC
:102FB00093ED027ADFED727A37EE277A6C4B1B685D
:102FC00006EE903AF8EEE67A052017EE101A6A4AF5
:102FD00017EE903AFFF7B8F8684BD3ED057A9FEDFE
:102FE000687A37EE677A624B1B68033B06EE903ACD
:102FF000F8EEE67A062017EE101A624A17EE903ABB
:10300000FFF7A2F83B68184620F020F85B4B93EDE1
:10301000007ADFED5B7A37EE277A554B1B6806EEB8
:10302000903AF8EEE67A012017EE101A524A17EE9F
:10303000903AFFF789F8514BD3ED037A9FED507A20
:1030400037EE677A4A4B1B6806EE903AF8EEE67A5E
:10305000022017EE101A484A17EE903AFFF774F85C
:10306000464BD3ED017A9FED467A37EE677A404BB7
:103070001B6806EE903AF8EEE67A032017EE101A77
:103080003D4A17EE903AFFF75FF83C4B93ED047A18
:10309000DFED3B7A37EE277A354B1B6806EE903A28
:1030A000F8EEE67A042017EE101A334A17EE903A3B
:1030B000FFF74AF8314B93ED027ADFED317A37EEC4
:1030C000277A2B4B1B6806EE903AF8EEE67A05203D
:1030D00017EE101A284A17EE903AFFF735F8274BEB
:1030E000D3ED057A9FED267A37EE677A204B1B6881
:1030F00006EE903AF8EEE67A062017EE101A1E4A0F
:1031000017EE903AFFF720F83B6818461FF09EFF35
:103110001A4B93ED007ADFED1A7A37EE277A144BCB
:103120001B68033B06EE903AF8EEE67A012017EEB4
:10313000101A144A17EE903AFFF706F80C4B1B686A
:1031400007EE103AF8EEC77A02200A490A4A17EE4B
:10315000903AFEF7F9FF064B1B6806EE903AF8EE40
:10316000E67A03200349044A17EE903A0CE000BFC8
:103170003C1A00200000B4420000E040D81D0020AE
:103180000000B44200002041FEF7DEFFA74B93EDA4
:10319000047ADFEDA77A37EE277AA64B1B68033B4C
:1031A00006EE903AF8EEE67A042017EE101AA24ADC
:1031B00017EE903AFEF7C8FF9C4B93ED027ADFEDD5
:1031C0009C7A37EE277A9B4B1B68033B06EE903ABE
:1031D000F8EEE67A052017EE101A974A17EE903AA5
:1031E000FEF7B2FF934B1B6807EE103AF8EEC77A72
:1031F00006209249924A17EE903AFEF7A5FF3B68E7
:1032000018461FF023FF894BD3ED007A9FED887A93
:1032100037EE677A874B1B68033B06EE903AF8EE71
:10322000E67A012017EE101A834A17EE903AFEF75D
:103230008BFF7E4B93ED037ADFED7D7A37EE277AB5
:103240007C4B1B6806EE903AF8EEE67A022017EE09
:10325000101A7B4A17EE903AFEF776FF734B93ED08
:10326000017ADFED737A37EE277A724B1B6806EE30
:10327000903AF8EEE67A032017EE101A704A17EE2D
:10328000903AFEF761FF694BD3ED047A9FED687ABF
:1032900037EE677A674B1B68033B06EE903AF8EE11
:1032A000E67A042017EE101A634A17EE903AFEF7FA
:1032B0004BFF5E4BD3ED027A9FED5D7A37EE677A76
:1032C0005C4B1B68033B06EE903AF8EEE67A05206D
:1032D00017EE101A584A17EE903AFEF735FF534B87
:1032E00093ED057ADFED527A37EE277A514B1B6862
:1032F00006EE903AF8EEE67A062017EE101A504ADB
:1033000017EE903AFEF720FF3B6818461FF09EFE2E
:10331000464BD3ED007A9FED467A37EE677A454B00
:103320001B6806EE903AF8EEE67A012017EE101AC6
:10333000434A17EE903AFEF707FF3C4B93ED037AB2
:10334000DFED3B7A37EE277A3A4B1B6806EE903A70
:10335000F8EEE67A022017EE101A394A17EE903A84
:10336000FEF7F2FE314B93ED017ADFED317A37EE65
:10337000277A304B1B6806EE903AF8EEE67A032087
:1033800017EE101A2E4A17EE903AFEF7DDFE274B85
:10339000D3ED047A9FED267A37EE677A254B1B68CA
:1033A00006EE903AF8EEE67A042017EE101A244A58
:1033B00017EE903AFEF7C8FE1C4BD3ED027A9FED54
:1033C0001C7A37EE677A1B4B1B6806EE903AF8EED4
:1033D000E67A052017EE101A194A17EE903AFEF712
:1033E000B3FE124B93ED057ADFED117A37EE277AB3
:1033F000104B1B6806EE903AF8EEE67A062017EEC0
:10340000101A0F4A17EE903AFEF79EFE3B681846D8
:103410001FF01CFEFB680133FB60FA68BB689A4230
:103420007FF702AD1037BD4680BD00BFD81D00201C
:103430000000B4423C1A0020000020410000B442C9
:103440000000E04080B584B000AF786039600C487F
:103450000C49FEF741F97B680B4A82FB03125210BC
:10346000DB17D31ABB6000206FF00401074AFEF798
:10347000CFFC32201FF0EAFD0123FB6025E300BFF3
:103480000010014028E003086766666600001041EE
:10349000D44B1B6806EE903AF8EEE67A0120D2494A
:1034A000D24A17EE903AFEF74FFED14B93ED037AD6
:1034B000DFEDD07A37EE277ACA4B1B68033B06EE66
:1034C000903AF8EEE67A022017EE101ACA4A17EE82
:1034D000903AFEF739FEC64B93ED047ADFEDC57ADC
:1034E00037EE277AF2EE0A7A37EE277ABD4B1B6861
:1034F000033B06EE903AF8EEE67A032017EE101A38
:10350000BD4A17EE903AFEF71FFEB64B1B6807EE5A
:10351000103AF8EEC77A0420B349B44A17EE903A4D
:10352000FEF712FEAF4B1B6806EE903AF8EEE67A15
:103530000520AD49AD4A17EE903AFEF705FEAC4BBB
:1035400093ED057ADFEDAB7A37EE277AA54B1B6852
:10355000033B06EE903AF8EEE67A062017EE101AD4
:10356000A54A17EE903AFEF7EFFD3B6818461FF0AC
:103570006DFD9F4B93ED007ADFED9E7A37EE277A53
:10358000F2EE0A7A37EE277A964B1B6806EE903AEF
:10359000F8EEE67A012017EE101A944A17EE903AE8
:1035A000FEF7D2FD924BD3ED037A9FED927A37EE80
:1035B000677A8C4B1B68033B06EE903AF8EEE67A8E
:1035C000022017EE101A8C4A17EE903AFEF7BCFD57
:1035D000874BD3ED017A9FED877A37EE677A814B7F
:1035E0001B68033B06EE903AF8EEE67A032017EEEE
:1035F000101A814A17EE903AFEF7A6FD7C4B93ED28
:10360000047ADFED7C7A37EE277A764B1B6806EE7C
:10361000903AF8EEE67A042017EE101A734A17EE85
:10362000903AFEF791FD724B93ED027ADFED717ADD
:1036300037EE277AF2EE0A7A37EE277A694B1B6863
:1036400006EE903AF8EEE67A052017EE101A674A71
:1036500017EE903AFEF778FD654BD3ED057A9FEDB6
:10366000657A37EE677A5F4B1B68033B06EE903A4C
:10367000F8EEE67A062017EE101A5F4A17EE903A37
:10368000FEF762FD3B6818461FF0E0FC584B93EDD7
:10369000007ADFED587A37EE277AF2EE047A37EEC9
:1036A000277A504B1B6806EE903AF8EEE67A012036
:1036B00017EE101A4D4A17EE903AFEF745FD4C4BA7
:1036C000D3ED037A9FED4B7A37EE677A454B1B6853
:1036D00006EE903AF8EEE67A022017EE101A434A08
:1036E00017EE903AFEF730FD414BD3ED017A9FED96
:1036F000417A37EE677A3B4B1B6806EE903AF8EE5C
:10370000E67A032017EE101A384A17EE903AFEF7C1
:103710001BFD374B93ED047ADFED367A37EE277ACF
:10372000304B1B6806EE903AF8EEE67A042017EE6E
:10373000101A2E4A17EE903AFEF706FD2C4B93ED29
:10374000027ADFED2C7A37EE277AF2EE0A7A37EE3C
:10375000277A244B1B6806EE903AF8EEE67A0520AD
:1037600017EE101A214A17EE903AFEF7EDFC204BA7
:10377000D3ED057A9FED1F7A37EE677A194B1B68F8
:1037800006EE903AF8EEE67A062017EE101A174A7F
:1037900017EE903AFEF7D8FC3B6818461FF056FC2F
:1037A000134B93ED007ADFED137A37EE277AF2EEC2
:1037B0000A7A37EE277A0B4B1B68033B06EE903AEA
:1037C000F8EEE67A012017EE101A0B4A17EE903A3F
:1037D000FEF7BAFC034B1B6807EE103AF8EEC77A07
:1037E0000CE000BF3C1A00200000B4420000E040A2
:1037F000D81D00200000B442000020410220B7493B
:10380000B74A17EE903AFEF79FFCB64B1B6806EEE0
:10381000903AF8EEE67A0320B049B14A17EE903AB2
:10382000FEF792FCB04B93ED047ADFEDB07A37EE01
:10383000277AAC4B1B68033B06EE903AF8EEE67A2B
:10384000042017EE101AAA4A17EE903AFEF77CFCF5
:10385000A54B93ED027ADFEDA57A37EE277AF2EEEB
:103860000A7A37EE277A9F4B1B68033B06EE903AA5
:10387000F8EEE67A052017EE101A9E4A17EE903AF7
:10388000FEF762FC974B1B6807EE103AF8EEC77A1A
:1038900006209249924A17EE903AFEF755FC3B6893
:1038A00018461FF0D3FB904BD3ED007A9FED8F7A33
:1038B00037EE677A8B4B1B68033B06EE903AF8EEC7
:1038C000E67A012017EE101A8A4A17EE903AFEF7B0
:1038D0003BFC854B93ED037ADFED847A37EE277A54
:1038E000804B1B6806EE903AF8EEE67A022017EE5F
:1038F000101A7B4A17EE903AFEF726FC7A4B93EDAE
:10390000017ADFED7A7A37EE277AF2EE0A7A37EE2D
:10391000277A744B1B6806EE903AF8EEE67A03209D
:1039200017EE101A6E4A17EE903AFEF70DFC6E4B2A
:10393000D3ED047A9FED6D7A37EE677A694B1B6899
:10394000033B06EE903AF8EEE67A042017EE101AE2
:10395000674A17EE903AFEF7F7FB634BD3ED027A16
:103960009FED627A37EE677A5E4B1B68033B06EE8B
:10397000903AF8EEE67A052017EE101A5D4A17EE37
:10398000903AFEF7E1FB584B93ED057ADFED577A5D
:1039900037EE277A534B1B6806EE903AF8EEE67A3C
:1039A000062017EE101A4E4A17EE903AFEF7CCFB9F
:1039B0003B6818461FF04AFB4B4BD3ED007A9FED56
:1039C0004B7A37EE677A474B1B6806EE903AF8EE73
:1039D000E67A012017EE101A414A17EE903AFEF7E8
:1039E000B3FB414B93ED037ADFED407A37EE277A54
:1039F0003C4B1B6806EE903AF8EEE67A022017EE92
:103A0000101A374A17EE903AFEF79EFB364B93EDAD
:103A1000017ADFED367A37EE277AF2EE0A7A37EE60
:103A2000277A304B1B6806EE903AF8EEE67A0320D0
:103A300017EE101A2A4A17EE903AFEF785FB2A4B2A
:103A4000D3ED047A9FED297A37EE677A254B1B6810
:103A500006EE903AF8EEE67A042017EE101A204AA5
:103A600017EE903AFEF770FB1F4BD3ED027A9FEDF5
:103A70001F7A37EE677A1B4B1B6806EE903AF8EE1A
:103A8000E67A052017EE101A154A17EE903AFEF75F
:103A90005BFB154B93ED057ADFED147A37EE277A51
:103AA000104B1B6806EE903AF8EEE67A062017EE09
:103AB000101A0B4A17EE903AFEF746FB3B68184681
:103AC0001FF0C4FAFB680133FB60FA68BB689A42D6
:103AD0007FF7DEAC1037BD4680BD00BF0000B442AA
:103AE0000000E0403C1A0020D81D00200000B44235
:103AF000000028410000204180B584B000AF78600C
:103B000039600B480B49FDF7E7FD7B680A4A82FBE9
:103B10000312DB17D31ABB6000206FF00201074AC3
:103B2000FEF776F932201FF091FA0123FB60FFE2E5
:103B30000010014028E0030856555555000010417B
:103B4000D14B93ED057ADFEDD17A37EE277AD04B62
:103B50001B68033B06EE903AF8EEE67A012017EE7A
:103B6000101ACC4A17EE903AFEF7EEFAC84B1B68D3
:103B700007EE103AF8EEC77A0220C749C74A17EE97
:103B8000903AFEF7E1FAC24B1B6806EE903AF8EE67
:103B9000E67A0320C049C14A17EE903AFEF7D4FAFC
:103BA000B94B93ED017ADFEDB97A37EE277AB84B4E
:103BB0001B68033B06EE903AF8EEE67A042017EE17
:103BC000101AB44A17EE903AFEF7BEFAAE4B93EDD8
:103BD000037ADFEDAE7A37EE277AAD4B1B68033BF5
:103BE00006EE903AF8EEE67A052017EE101AA94A8A
:103BF00017EE903AFEF7A8FAA54B1B6807EE103AAD
:103C0000F8EEC77A0620A449A44A17EE903AFEF7C8
:103C10009BFA3B6818461FF019FA9B4BD3ED057AC7
:103C20009FED9A7A37EE677A994B1B68033B06EE55
:103C3000903AF8EEE67A012017EE101A954A17EE40
:103C4000903AFEF781FA904B93ED027ADFED8F7A8E
:103C500037EE277A8E4B1B6806EE903AF8EEE67A3E
:103C6000022017EE101A8D4A17EE903AFEF76CFA02
:103C7000854B93ED047ADFED857A37EE277A844B16
:103C80001B6806EE903AF8EEE67A032017EE101A5B
:103C9000824A17EE903AFEF757FA7B4BD3ED017A42
:103CA0009FED7A7A37EE677A794B1B68033B06EE15
:103CB000903AF8EEE67A042017EE101A754A17EEDD
:103CC000903AFEF741FA704BD3ED037A9FED6F7A8D
:103CD00037EE677A6E4B1B68033B06EE903AF8EEC0
:103CE000E67A052017EE101A6A4A17EE903AFEF7A8
:103CF0002BFA654B93ED007ADFED647A37EE277A85
:103D0000634B1B6806EE903AF8EEE67A062017EE53
:103D1000101A624A17EE903AFEF716FA3B681846F8
:103D20001FF094F9584BD3ED057A9FED587A37EE92
:103D3000677A574B1B6806EE903AF8EEE67A012058
:103D400017EE101A554A17EE903AFEF7FDF94E4B52
:103D500093ED027ADFED4D7A37EE277A4C4B1B68F4
:103D600006EE903AF8EEE67A022017EE101A4B4A69
:103D700017EE903AFEF7E8F9434B93ED047ADFED46
:103D8000437A37EE277A424B1B6806EE903AF8EEFC
:103D9000E67A032017EE101A404A17EE903AFEF723
:103DA000D3F9394BD3ED017A9FED387A37EE677A44
:103DB000374B1B6806EE903AF8EEE67A042017EED1
:103DC000101A364A17EE903AFEF7BEF92E4BD3ED95
:103DD000037A9FED2E7A37EE677A2D4B1B6806EE3D
:103DE000903AF8EEE67A052017EE101A2B4A17EEF5
:103DF000903AFEF7A9F9244B93ED007ADFED237A90
:103E000037EE277A224B1B6806EE903AF8EEE67AF8
:103E1000062017EE101A214A17EE903AFEF794F991
:103E20003B6818461FF012F9194B1B6807EE103A51
:103E3000F8EEC77A01201849184A17EE903AFEF7B3
:103E400083F9114B93ED027ADFED107A37EE277A82
:103E50000F4B1B68033B06EE903AF8EEE67A022021
:103E600017EE101A0B4A17EE903AFEF76DF9064B53
:103E700093ED047ADFED057A37EE277A044B1B6861
:103E8000033B06EE903A0BE0D81D00200000B44240
:103E90003C1A0020000020410000B4420000E04035
:103EA000F8EEE67A032017EE101AA54A17EE903ABC
:103EB000FEF74AF9A34B1B6807EE103AF8EEC77AF3
:103EC0000420A149A14A17EE903AFEF73DF99D4B17
:103ED0001B6806EE903AF8EEE67A05209A499B4A6E
:103EE00017EE903AFEF730F9994B93ED007ADFED3B
:103EF000997A37EE277A934B1B68033B06EE903A8C
:103F0000F8EEE67A062017EE101A8D4A17EE903A70
:103F1000FEF71AF93B6818461FF098F88C4B93EDA2
:103F2000057ADFED8C7A37EE277A864B1B6806EE32
:103F3000903AF8EEE67A012017EE101A834A17EE4F
:103F4000903AFEF701F9824BD3ED027A9FED817A28
:103F500037EE677A7B4B1B68033B06EE903AF8EE30
:103F6000E67A022017EE101A754A17EE903AFEF71D
:103F7000EBF8774BD3ED047A9FED767A37EE677ADC
:103F8000704B1B68033B06EE903AF8EEE67A03208E
:103F900017EE101A6A4A17EE903AFEF7D5F86C4BF6
:103FA00093ED017ADFED6B7A37EE277A654B1B686C
:103FB00006EE903AF8EEE67A042017EE101A634AFD
:103FC00017EE903AFEF7C0F8614B93ED037ADFED00
:103FD000617A37EE277A5B4B1B6806EE903AF8EE73
:103FE000E67A052017EE101A584A17EE903AFEF7B7
:103FF000ABF8574BD3ED007A9FED567A37EE677AE0
:10400000504B1B68033B06EE903AF8EEE67A06202A
:1040100017EE101A4A4A17EE903AFEF795F83B68E9
:1040200018461FF013F84A4B93ED057ADFED497AF5
:1040300037EE277A434B1B6806EE903AF8EEE67AA5
:10404000012017EE101A414A17EE903AFEF77CF85D
:104050003F4BD3ED027A9FED3F7A37EE677A394BCB
:104060001B6806EE903AF8EEE67A022017EE101A78
:10407000364A17EE903AFEF767F8354BD3ED047ADF
:104080009FED347A37EE677A2E4B1B6806EE903A36
:10409000F8EEE67A032017EE101A2C4A17EE903A43
:1040A000FEF752F82A4B93ED017ADFED2A7A37EECC
:1040B000277A244B1B6806EE903AF8EEE67A042045
:1040C00017EE101A214A17EE903AFEF73DF8204BF2
:1040D00093ED037ADFED1F7A37EE277A194B1B68D1
:1040E00006EE903AF8EEE67A052017EE101A174A17
:1040F00017EE903AFEF728F8154BD3ED007A9FEDB6
:10410000157A37EE677A0F4B1B6806EE903AF8EE99
:10411000E67A062017EE101A0C4A17EE903AFEF7D0
:1041200013F83B6818461EF091FFFB680133FB60F3
:10413000FA68BB689A427FF703AD1037BD4680BD71
:10414000000020413C1A00200000B4420000E04082
:10415000D81D00200000B44280B582B000AF786066
:10416000396006480649FDF7B7FA3B68022B09D0CB
:10417000052B00F0358200F059BC00BF0010014053
:1041800040E0030800203968D34AFDF741FE3220A1
:104190001EF05CFFD14B93ED007ADFEDD17A37EE64
:1041A000277AD04B1B6806EE903AF8EEE67A0120AB
:1041B00017EE101ACC4A17EE903AFDF7C5FFC74B21
:1041C00093ED037ADFEDC67A37EE277AC54B1B688D
:1041D000033B06EE903AF8EEE67A022017EE101A4C
:1041E000C24A17EE903AFDF7AFFFBC4BD3ED017A10
:1041F0009FEDBB7A37EE677ABA4B1B68033B06EE3E
:10420000903AF8EEE67A032017EE101AB74A17EE46
:10421000903AFDF799FFB14BD3ED047A9FEDB07A58
:1042200037EE677AAF4B1B6806EE903AF8EEE67A07
:10423000042017EE101AAC4A17EE903AFDF784FFEF
:10424000A64B93ED027ADFEDA67A37EE277AA54BDF
:104250001B6806EE903AF8EEE67A052017EE101A83
:10426000A14A17EE903AFDF76FFF9C4B93ED057A4C
:10427000DFED9B7A37EE277A9A4B1B68033B06EEFD
:10428000903AF8EEE67A062017EE101A974A17EEE3
:10429000903AFDF759FF7B6818461EF0D7FE8F4B0A
:1042A00093ED007ADFED8E7A37EE277A8D4B1B681F
:1042B00006EE903AF8EEE67A012017EE101A8A4AD6
:1042C00017EE903AFDF740FF844B93ED037ADFED54
:1042D000847A37EE277A834B1B6806EE903AF8EE25
:1042E000E67A022017EE101A7F4A17EE903AFDF791
:1042F0002BFF7A4BD3ED017A9FED797A37EE677A0F
:10430000784B1B6806EE903AF8EEE67A032017EE3B
:10431000101A754A17EE903AFDF716FF6F4BD3ED62
:10432000047A9FED6F7A37EE677A6E4B1B6806EE64
:10433000903AF8EEE67A042017EE101A6A4A17EE61
:10434000903AFDF701FF654B93ED027ADFED647A59
:1043500037EE277A634B1B6806EE903AF8EEE67A62
:10436000052017EE101A604A17EE903AFDF7ECFEA2
:104370005A4B93ED057ADFED5A7A37EE277A594B8F
:104380001B6806EE903AF8EEE67A062017EE101A51
:10439000554A17EE903AFDF7D7FE7B6818461EF097
:1043A00055FE4E4BD3ED007A9FED4D7A37EE677A8E
:1043B0004C4B1B68033B06EE903AF8EEE67A012080
:1043C00017EE101A494A17EE903AFDF7BDFE434B1F
:1043D000D3ED037A9FED427A37EE677A414B1B6843
:1043E00006EE903AF8EEE67A022017EE101A3E4AF0
:1043F00017EE903AFDF7A8FE384B93ED017ADFED0A
:10440000387A37EE277A374B1B6806EE903AF8EE8B
:10441000E67A032017EE101A334A17EE903AFDF7AA
:1044200093FE2E4B93ED047ADFED2D7A37EE277A4B
:104430002C4B1B68033B06EE903AF8EEE67A04201C
:1044400017EE101A2A4A17EE903AFDF77DFE234B1D
:10445000D3ED027A9FED227A37EE677A214B1B6803
:10446000033B06EE903AF8EEE67A052017EE101AB6
:104470001E4A17EE903AFDF767FE184BD3ED057A0A
:104480009FED177A37EE677A164B1B6806EE903A67
:10449000F8EEE67A062017EE101A134A17EE903A55
:1044A000FDF752FE7B6818461EF0D0FD0B4BD3ED96
:1044B000007A9FED0B7A37EE677A0A4B1B6806EE9F
:1044C000903AF8EEE67A012017EE101A064A17EE37
:1044D000903AFDF739FE0DE000001041D81D002094
:1044E0000000B4423C1A00200000E04000002041DF
:1044F00000002841364BD3ED037A9FED367A37EE34
:10450000677A354B1B6806EE903AF8EEE67A0220A1
:1045100017EE101A314A17EE903AFDF715FE2C4BA4
:1045200093ED017ADFED2B7A37EE277A2A4B1B6861
:1045300006EE903AF8EEE67A032017EE101A274AB4
:1045400017EE903AFDF700FE214B93ED047ADFED74
:10455000217A37EE277A204B1B6806EE903AF8EE68
:10456000E67A042017EE101A1C4A17EE903AFDF76F
:10457000EBFD174BD3ED027A9FED167A37EE677A93
:10458000154B1B6806EE903AF8EEE67A052017EE1A
:10459000101A124A17EE903AFDF7D6FD0C4BD3EDE8
:1045A000057A9FED0C7A37EE677A0B4B1B6806EEA7
:1045B000903AF8EEE67A062017EE101A074A17EE40
:1045C000903AFDF7C1FD7B6818461EF03FFD2DE2D5
:1045D000D81D00200000B4423C1A00200000E0403A
:1045E00000203968D34AFDF713FC32201EF02EFD5F
:1045F000D14B93ED007ADFEDD17A37EE277AD04BAD
:104600001B6806EE903AF8EEE67A012017EE101AD3
:10461000CC4A17EE903AFDF797FDC74B93ED037A1E
:10462000DFEDC67A37EE277AC54B1B68033B06EEF3
:10463000903AF8EEE67A022017EE101AC24A17EE08
:10464000903AFDF781FDBC4BD3ED017A9FEDBB7A2B
:1046500037EE677ABA4B1B68033B06EE903AF8EEEA
:10466000E67A032017EE101AB74A17EE903AFDF7D4
:104670006BFDB14BD3ED047A9FEDB07A37EE677ADC
:10468000AF4B1B6806EE903AF8EEE67A042017EE80
:10469000101AAC4A17EE903AFDF756FDA64B93ED73
:1046A000027ADFEDA67A37EE277AA54B1B6806EE75
:1046B000903AF8EEE67A052017EE101AA14A17EEA6
:1046C000903AFDF741FD9C4B93ED057ADFED9B7A27
:1046D00037EE277A9A4B1B68033B06EE903AF8EECA
:1046E000E67A062017EE101A974A17EE903AFDF771
:1046F0002BFD7B6818461EF0A9FC8F4B93ED007ACA
:10470000DFED8E7A37EE277A8D4B1B6806EE903AF6
:10471000F8EEE67A012017EE101A8A4A17EE903A60
:10472000FDF712FD844B93ED037ADFED847A37EECB
:10473000277A834B1B6806EE903AF8EEE67A022061
:1047400017EE101A7F4A17EE903AFDF7FDFC7A4BF0
:10475000D3ED017A9FED797A37EE677A784B1B6853
:1047600006EE903AF8EEE67A032017EE101A754A34
:1047700017EE903AFDF7E8FC6F4BD3ED047A9FED0E
:104780006F7A37EE677A6E4B1B6806EE903AF8EE5A
:10479000E67A042017EE101A6A4A17EE903AFDF7EF
:1047A000D3FC654B93ED027ADFED647A37EE277A1E
:1047B000634B1B6806EE903AF8EEE67A052017EE9A
:1047C000101A604A17EE903AFDF7BEFC5A4B93ED73
:1047D000057ADFED5A7A37EE277A594B1B6806EED9
:1047E000903AF8EEE67A062017EE101A554A17EEC0
:1047F000903AFDF7A9FC7B6818461EF027FC4E4B4B
:10480000D3ED007A9FED4D7A37EE677A4C4B1B68FB
:10481000033B06EE903AF8EEE67A012017EE101A06
:10482000494A17EE903AFDF78FFC434BD3ED037ADC
:104830009FED427A37EE677A414B1B6806EE903A5D
:10484000F8EEE67A022017EE101A3E4A17EE903A7A
:10485000FDF77AFC384B93ED017ADFED387A37EECD
:10486000277A374B1B6806EE903AF8EEE67A03207B
:1048700017EE101A334A17EE903AFDF765FC2E4BEF
:1048800093ED047ADFED2D7A37EE277A2C4B1B68F7
:10489000033B06EE903AF8EEE67A042017EE101A83
:1048A0002A4A17EE903AFDF74FFC234BD3ED027ADC
:1048B0009FED227A37EE677A214B1B68033B06EEA9
:1048C000903AF8EEE67A052017EE101A1E4A17EE17
:1048D000903AFDF739FC184BD3ED057A9FED177A26
:1048E00037EE677A164B1B6806EE903AF8EEE67ADA
:1048F000062017EE101A134A17EE903AFDF724FC23
:104900007B6818461EF0A2FB0B4BD3ED007A9FED9F
:104910000B7A37EE677A0A4B1B6806EE903AF8EE90
:10492000E67A012017EE101A064A17EE903AFDF7C4
:104930000BFC0DE000001041D81D00200000B44227
:104940003C1A00200000E040000020410000284107
:10495000384BD3ED037A9FED387A37EE677A374BD1
:104960001B6806EE903AF8EEE67A022017EE101A6F
:10497000334A17EE903AFDF7E7FB2E4B93ED017AA1
:10498000DFED2D7A37EE277A2C4B1B6806EE903A36
:10499000F8EEE67A032017EE101A294A17EE903A3D
:1049A000FDF7D2FB234B93ED047ADFED237A37EE4C
:1049B000277A224B1B6806EE903AF8EEE67A04203E
:1049C00017EE101A1E4A17EE903AFDF7BDFB194B71
:1049D000D3ED027A9FED187A37EE677A174B1B6892
:1049E00006EE903AF8EEE67A052017EE101A144A11
:1049F00017EE903AFDF7A8FB0E4BD3ED057A9FED2D
:104A00000E7A37EE677A0D4B1B6806EE903AF8EE99
:104A1000E67A062017EE101A094A17EE903AFDF7CB
:104A200093FB7B6818461EF011FB00BF0837BD469C
:104A300080BD00BFD81D00200000B4423C1A0020F9
:104A40000000E04080B582B000AF78603960064871
:104A50000649FCF741FE3B68022B09D0052B00F00C
:104A6000358200F059BC00BF001001405CE0030833
:104A700000203968D34AFDF7CBF932201EF0E6FA60
:104A8000D14BD3ED007A9FEDD17A37EE677AD04BD8
:104A90001B6806EE903AF8EEE67A012017EE101A3F
:104AA000CC4A17EE903AFDF74FFBC74BD3ED037A94
:104AB0009FEDC67A37EE677AC54B1B68033B06EE5F
:104AC000903AF8EEE67A022017EE101AC24A17EE74
:104AD000903AFDF739FBBC4B93ED017ADFEDBB7AE1
:104AE00037EE277ABA4B1B68033B06EE903AF8EE96
:104AF000E67A032017EE101AB74A17EE903AFDF740
:104B000023FBB14B93ED047ADFEDB07A37EE277AD1
:104B1000AF4B1B6806EE903AF8EEE67A042017EEEB
:104B2000101AAC4A17EE903AFDF70EFBA64BD3EDE8
:104B3000027A9FEDA67A37EE677AA54B1B6806EEE0
:104B4000903AF8EEE67A052017EE101AA14A17EE11
:104B5000903AFDF7F9FA9C4BD3ED057A9FED9B7ADD
:104B600037EE677A9A4B1B68033B06EE903AF8EEF5
:104B7000E67A062017EE101A974A17EE903AFDF7DC
:104B8000E3FA7B6818461EF061FA8F4BD3ED007A8A
:104B90009FED8E7A37EE677A8D4B1B6806EE903A62
:104BA000F8EEE67A012017EE101A8A4A17EE903ACC
:104BB000FDF7CAFA844BD3ED037A9FED847A37EE82
:104BC000677A834B1B6806EE903AF8EEE67A02208D
:104BD00017EE101A7F4A17EE903AFDF7B5FA7A4BA6
:104BE00093ED017ADFED797A37EE277A784B1B68FF
:104BF00006EE903AF8EEE67A032017EE101A754AA0
:104C000017EE903AFDF7A0FA6F4B93ED047ADFEDC3
:104C10006F7A37EE277A6E4B1B6806EE903AF8EE05
:104C2000E67A042017EE101A6A4A17EE903AFDF75A
:104C30008BFA654BD3ED027A9FED647A37EE677A93
:104C4000634B1B6806EE903AF8EEE67A052017EE05
:104C5000101A604A17EE903AFDF776FA5A4BD3EDE8
:104C6000057A9FED5A7A37EE677A594B1B6806EE44
:104C7000903AF8EEE67A062017EE101A554A17EE2B
:104C8000903AFDF761FA7B6818461EF0DFF94E4B4B
:104C900093ED007ADFED4D7A37EE277A4C4B1B68A7
:104CA000033B06EE903AF8EEE67A012017EE101A72
:104CB000494A17EE903AFDF747FA434B93ED037AD2
:104CC000DFED427A37EE277A414B1B6806EE903AC9
:104CD000F8EEE67A022017EE101A3E4A17EE903AE6
:104CE000FDF732FA384BD3ED017A9FED387A37EE83
:104CF000677A374B1B6806EE903AF8EEE67A0320A7
:104D000017EE101A334A17EE903AFDF71DFA2E4BA4
:104D1000D3ED047A9FED2D7A37EE677A2C4B1B6822
:104D2000033B06EE903AF8EEE67A042017EE101AEE
:104D30002A4A17EE903AFDF707FA234B93ED027AD1
:104D4000DFED227A37EE277A214B1B68033B06EE14
:104D5000903AF8EEE67A052017EE101A1E4A17EE82
:104D6000903AFDF7F1F9184B93ED057ADFED177ADC
:104D700037EE277A164B1B6806EE903AF8EEE67A85
:104D8000062017EE101A134A17EE903AFDF7DCF9D9
:104D90007B6818461EF05AF90B4B93ED007ADFED55
:104DA0000B7A37EE277A0A4B1B6806EE903AF8EE3C
:104DB000E67A012017EE101A064A17EE903AFDF730
:104DC000C3F90DE000001041D81D00200000B442DE
:104DD0003C1A00200000E040000020410000284173
:104DE000364B93ED037ADFED367A37EE277A354B83
:104DF0001B6806EE903AF8EEE67A022017EE101ADB
:104E0000314A17EE903AFDF79FF92C4BD3ED017A1A
:104E10009FED2B7A37EE677A2A4B1B6806EE903AA5
:104E2000F8EEE67A032017EE101A274A17EE903AAA
:104E3000FDF78AF9214BD3ED047A9FED217A37EE05
:104E4000677A204B1B6806EE903AF8EEE67A04206B
:104E500017EE101A1C4A17EE903AFDF775F9174B2A
:104E600093ED027ADFED167A37EE277A154B1B6841
:104E700006EE903AF8EEE67A052017EE101A124A7E
:104E800017EE903AFDF760F90C4B93ED057ADFEDE4
:104E90000C7A37EE277A0B4B1B6806EE903AF8EE49
:104EA000E67A062017EE101A074A17EE903AFDF739
:104EB0004BF97B6818461EF0C9F82DE2D81D00207A
:104EC0000000B4423C1A00200000E0400020396895
:104ED000D34AFCF79DFF32201EF0B8F8D14BD3ED3A
:104EE000007A9FEDD17A37EE677AD04B1B6806EED9
:104EF000903AF8EEE67A012017EE101ACC4A17EE37
:104F0000903AFDF721F9C74BD3ED037A9FEDC67AAE
:104F100037EE677AC54B1B68033B06EE903AF8EE16
:104F2000E67A022017EE101AC24A17EE903AFDF701
:104F30000BF9BC4B93ED017ADFEDBB7A37EE277AA4
:104F4000BA4B1B68033B06EE903AF8EEE67A032074
:104F500017EE101AB74A17EE903AFDF7F5F8B14B75
:104F600093ED047ADFEDB07A37EE277AAF4B1B680A
:104F700006EE903AF8EEE67A042017EE101AAC4AE4
:104F800017EE903AFDF7E0F8A64BD3ED027A9FEDCD
:104F9000A67A37EE677AA54B1B6806EE903AF8EED4
:104FA000E67A052017EE101AA14A17EE903AFDF79F
:104FB000CBF89C4BD3ED057A9FED9B7A37EE677A61
:104FC0009A4B1B68033B06EE903AF8EEE67A062011
:104FD00017EE101A974A17EE903AFDF7B5F87B686E
:104FE00018461EF033F88F4BD3ED007A9FED8E7A82
:104FF00037EE677A8D4B1B6806EE903AF8EEE67A4C
:10500000012017EE101A8A4A17EE903AFDF79CF825
:10501000844BD3ED037A9FED847A37EE677A834B26
:105020001B6806EE903AF8EEE67A022017EE101AA8
:105030007F4A17EE903AFDF787F87A4B93ED017AA5
:10504000DFED797A37EE277A784B1B6806EE903AD7
:10505000F8EEE67A032017EE101A754A17EE903A2A
:10506000FDF772F86F4B93ED047ADFED6F7A37EE50
:10507000277A6E4B1B6806EE903AF8EEE67A04202B
:1050800017EE101A6A4A17EE903AFDF75DF8654B75
:10509000D3ED027A9FED647A37EE677A634B1B6833
:1050A00006EE903AF8EEE67A052017EE101A604AFE
:1050B00017EE903AFDF748F85A4BD3ED057A9FED7D
:1050C0005A7A37EE677A594B1B6806EE903AF8EE3B
:1050D000E67A062017EE101A554A17EE903AFDF7B9
:1050E00033F87B6818461DF0B1FF4E4B93ED007A04
:1050F000DFED4D7A37EE277A4C4B1B68033B06EE0B
:10510000903AF8EEE67A012017EE101A494A17EEA7
:10511000903AFDF719F8434B93ED037ADFED427AAD
:1051200037EE277A414B1B6806EE903AF8EEE67AA6
:10513000022017EE101A3E4A17EE903AFDF704F8D7
:10514000384BD3ED017A9FED387A37EE677A374BDB
:105150001B6806EE903AF8EEE67A032017EE101A76
:10516000334A17EE903AFCF7EFFF2E4BD3ED047A5B
:105170009FED2D7A37EE677A2C4B1B68033B06EECA
:10518000903AF8EEE67A042017EE101A2A4A17EE43
:10519000903AFCF7D9FF234B93ED027ADFED227AA8
:1051A00037EE277A214B1B68033B06EE903AF8EE68
:1051B000E67A052017EE101A1E4A17EE903AFCF711
:1051C000C3FF184B93ED057ADFED177A37EE277A98
:1051D000164B1B6806EE903AF8EEE67A062017EEBC
:1051E000101A134A17EE903AFCF7AEFF7B68184688
:1051F0001DF02CFF0B4B93ED007ADFED0B7A37EEB1
:10520000277A0A4B1B6806EE903AF8EEE67A012000
:1052100017EE101A064A17EE903AFCF795FF0DE0CC
:1052200000001041D81D00200000B4423C1A0020AC
:105230000000E0400000204100002841384B93ED81
:10524000037ADFED387A37EE277A374B1B6806EEA4
:10525000903AF8EEE67A022017EE101A334A17EE6B
:10526000903AFCF771FF2E4BD3ED017A9FED2D7A2A
:1052700037EE677A2C4B1B6806EE903AF8EEE67A2A
:10528000032017EE101A294A17EE903AFCF75CFF3C
:10529000234BD3ED047A9FED237A37EE677A224BC6
:1052A0001B6806EE903AF8EEE67A042017EE101A24
:1052B0001E4A17EE903AFCF747FF194B93ED027A1E
:1052C000DFED187A37EE277A174B1B6806EE903A17
:1052D000F8EEE67A052017EE101A144A17EE903A07
:1052E000FCF732FF0E4B93ED057ADFED0E7A37EEC9
:1052F000277A0D4B1B6806EE903AF8EEE67A062008
:1053000017EE101A094A17EE903AFCF71DFF7B685A
:1053100018461DF09BFE00BF0837BD4680BD00BF8C
:10532000D81D00200000B4423C1A00200000E040DC
:1053300080B582B000AF78603960C548C549FCF7D8
:10534000CBF900200521C44AFCF762FD32201DF094
:105350007DFEC24B93ED007ADFEDC17A37EE277AFE
:10536000C04B1B6806EE903AF8EEE67A012017EE85
:10537000101ABD4A17EE903AFCF7E6FEB74B93EDD4
:10538000037ADFEDB77A37EE277AB64B1B68033B1B
:1053900006EE903AF8EEE67A022017EE101AB34ABB
:1053A00017EE903AFCF7D0FEAE4B1B68013B07EEC0
:1053B000103AF8EEC77A0320AD494FF0824217EE5B
:1053C000903AFCF7C1FEA74B1B68013B06EE903AF2
:1053D000F8EEE67A0420A649A34A17EE903AFCF7C5
:1053E000B3FE9E4B93ED027ADFED9D7A37EE277A7E
:1053F000F1EE047A37EE277A9A4B1B68033B06EEF0
:10540000903AF8EEE67A052017EE101A974A17EE52
:10541000903AFCF799FE914B93ED057ADFED907A87
:1054200037EE277AF1EE047A37EE277A8D4B1B6838
:1054300006EE903AF8EEE67A062017EE101A8A4A3F
:1054400017EE903AFCF780FE7B6818461DF0FEFDD3
:10545000824BD3ED007A9FED827A37EE677A814BEB
:105460001B68033B06EE903AF8EEE67A012017EE51
:10547000101A7E4A17EE903AFCF766FE774B93EDD2
:10548000037ADFED777A37EE277A764B1B6806EEE4
:10549000903AF8EEE67A022017EE101A724A17EEEA
:1054A000903AFCF751FE6F4B1B68013B07EE103A38
:1054B000F8EEC77A03206E494FF0824217EE903A19
:1054C000FCF742FE674B1B68013B06EE903AF8EE94
:1054D000E67A04206649644A17EE903AFCF734FEF7
:1054E0005E4B93ED027ADFED5E7A37EE277AF1EECE
:1054F000047A37EE277A5B4B1B6806EE903AF8EE9B
:10550000E67A052017EE101A574A17EE903AFCF784
:105510001BFE524BD3ED057A9FED517A37EE677A39
:10552000F1EE047A37EE677A4E4B1B68033B06EECA
:10553000903AF8EEE67A062017EE101A4B4A17EE6C
:10554000903AFCF701FE7B6818461DF07FFD434B47
:10555000D3ED007A9FED427A37EE677A414B1B68B4
:1055600006EE903AF8EEE67A012017EE101A3E4A5F
:1055700017EE903AFCF7E8FD384BD3ED037A9FED38
:10558000387A37EE677A374B1B6806EE903AF8EEBA
:10559000E67A022017EE101A334A17EE903AFCF71B
:1055A000D3FD304B1B68013B07EE103AF8EEC77A8B
:1055B00003202F494FF0824217EE903AFCF7C4FDCA
:1055C000284B1B68013B06EE903AF8EEE67A042081
:1055D0002749254A17EE903AFCF7B6FD1F4BD3ED4D
:1055E000027A9FED1F7A37EE677AF1EE047A37EE92
:1055F000677A1C4B1B6806EE903AF8EEE67A0520B7
:1056000017EE101A184A17EE903AFCF79DFD134B4F
:10561000D3ED057A9FED127A37EE677AF1EE047AD0
:1056200037EE677A0F4B1B6806EE903AF8EEE67A93
:10563000062017EE101A0C4A17EE903AFCF784FD7C
:105640007B6818461DF002FD0837BD4680BD00BFCF
:1056500000100140D0E1030800001041D81D0020D7
:105660000000B4423C1A00200000E040000020414D
:105670000000B44280B582B000AF78603960C548A0
:10568000C549FCF729F800200521C44AFCF7C0FBF6
:1056900032201DF0DBFCC24BD3ED007A9FEDC17AC6
:1056A00037EE677AC04B1B6806EE903AF8EEE67A62
:1056B000012017EE101ABD4A17EE903AFCF744FD90
:1056C000B74BD3ED037A9FEDB77A37EE677AB64BD7
:1056D0001B68033B06EE903AF8EEE67A022017EEDE
:1056E000101AB34A17EE903AFCF72EFDAE4B1B682A
:1056F000013B07EE103AF8EEC77A0320AD494FF0B0
:10570000824217EE903AFCF71FFDA74B1B68013B46
:1057100006EE903AF8EEE67A0420A649A34A17EE80
:10572000903AFCF711FD9E4BD3ED027A9FED9D7AE6
:1057300037EE677AF1EE047A37EE677A9A4B1B6898
:10574000033B06EE903AF8EEE67A052017EE101AC3
:10575000974A17EE903AFCF7F7FC914BD3ED057A98
:105760009FED907A37EE677AF1EE047A37EE677A3A
:105770008D4B1B6806EE903AF8EEE67A062017EE9F
:10578000101A8A4A17EE903AFCF7DEFC7B6818463E
:105790001DF05CFC824B93ED007ADFED827A37EEF0
:1057A000277A814B1B68033B06EE903AF8EEE67AC7
:1057B000012017EE101A7E4A17EE903AFCF7C4FC4F
:1057C000774BD3ED037A9FED777A37EE677A764B96
:1057D0001B6806EE903AF8EEE67A022017EE101AF1
:1057E000724A17EE903AFCF7AFFC6F4B1B68013B17
:1057F00007EE103AF8EEC77A03206E494FF0824266
:1058000017EE903AFCF7A0FC674B1B68013B06EED5
:10581000903AF8EEE67A04206649644A17EE903A28
:10582000FCF792FC5E4BD3ED027A9FED5E7A37EE89
:10583000677AF1EE047A37EE677A5B4B1B6806EE07
:10584000903AF8EEE67A052017EE101A574A17EE4E
:10585000903AFCF779FC524B93ED057ADFED517AE3
:1058600037EE277AF1EE047A37EE277A4E4B1B6833
:10587000033B06EE903AF8EEE67A062017EE101A91
:105880004B4A17EE903AFCF75FFC7B6818461DF018
:10589000DDFB434B93ED007ADFED427A37EE277A5A
:1058A000414B1B6806EE903AF8EEE67A012017EEBF
:1058B000101A3E4A17EE903AFCF746FC384B93ED2F
:1058C000037ADFED387A37EE277A374B1B6806EE1E
:1058D000903AF8EEE67A022017EE101A334A17EEE5
:1058E000903AFCF731FC304B1B68013B07EE103A55
:1058F000F8EEC77A03202F494FF0824217EE903A14
:10590000FCF722FC284B1B68013B06EE903AF8EEB0
:10591000E67A04202749254A17EE903AFCF714FC52
:105920001F4B93ED027ADFED1F7A37EE277AF1EE07
:10593000047A37EE277A1C4B1B6806EE903AF8EE95
:10594000E67A052017EE101A184A17EE903AFCF77F
:10595000FBFB134B93ED057ADFED127A37EE277AD6
:10596000F1EE047A37EE277A0F4B1B6806EE903A79
:10597000F8EEE67A062017EE101A0C4A17EE903A67
:10598000FCF7E2FB7B6818461DF060FB0837BD465C
:1059900080BD00BF00100140ECE103080000104191
:1059A000D81D00200000B4423C1A00200000E04056
:1059B000000020410000B44280B500AF0420012166
:1059C00000F050FF244B08221A60234B03221A7167
:1059D000214B0022DA7121481F491DF049F84FF48C
:1059E0008060012100F07AFF1D4B00221A601C4BE1
:1059F00000225A601A4B00229A60194B0022DA608A
:105A0000174801F00DFF174B4FF000721A60154B4D
:105A100000221A71134B01225A71124B00229A6014
:105A2000104B0022DA600F4B00221A610D4B01224D
:105A30001A750D480B4901F09FFE0B48012101F03A
:105A400017FF0948012102F003F807480D21012240
:105A5000002301F029FF80BD8419002000080240C6
:105A6000A4190020F01600200022014080B500AFEC
:105A7000374801F0DDFF364802F006F8344802F0FE
:105A800003F803461A46334B1A6033483349FBF791
:105A900023FE304B1B68304831491A46FBF71CFE89
:105AA0002C4B1B680F2B03D82E4B01221A803AE097
:105AB000284B1B682C2B07D9264B1B684B2B03D874
:105AC000284B02221A802EE0224B1B68632B07D939
:105AD000204B1B68872B03D8224B03221A8022E01D
